{
	"contracts/horsey.sol": {
		"horsey": {
			"abi": [
				{
					"inputs": [
						{
							"internalType": "int256",
							"name": "horseId",
							"type": "int256"
						}
					],
					"name": "addRaceHorse",
					"outputs": [],
					"stateMutability": "nonpayable",
					"type": "function"
				},
				{
					"inputs": [
						{
							"internalType": "address",
							"name": "_owner",
							"type": "address"
						},
						{
							"internalType": "int256",
							"name": "horseId",
							"type": "int256"
						},
						{
							"internalType": "uint256",
							"name": "bidAmount",
							"type": "uint256"
						}
					],
					"name": "bidOnHorse",
					"outputs": [],
					"stateMutability": "nonpayable",
					"type": "function"
				},
				{
					"inputs": [
						{
							"internalType": "address",
							"name": "_owner",
							"type": "address"
						},
						{
							"components": [
								{
									"internalType": "int256",
									"name": "id",
									"type": "int256"
								},
								{
									"internalType": "string",
									"name": "name",
									"type": "string"
								},
								{
									"internalType": "address",
									"name": "owner",
									"type": "address"
								},
								{
									"internalType": "int256",
									"name": "speed",
									"type": "int256"
								},
								{
									"internalType": "int256",
									"name": "acceleration",
									"type": "int256"
								},
								{
									"internalType": "int256",
									"name": "agility",
									"type": "int256"
								},
								{
									"internalType": "int256",
									"name": "stamina",
									"type": "int256"
								},
								{
									"internalType": "int256",
									"name": "strength",
									"type": "int256"
								},
								{
									"internalType": "int256",
									"name": "rarity",
									"type": "int256"
								},
								{
									"internalType": "int256",
									"name": "theta",
									"type": "int256"
								}
							],
							"internalType": "struct horsey.Horse",
							"name": "newHorse",
							"type": "tuple"
						}
					],
					"name": "breedOrExhaustHorse",
					"outputs": [],
					"stateMutability": "nonpayable",
					"type": "function"
				},
				{
					"inputs": [
						{
							"internalType": "address",
							"name": "",
							"type": "address"
						}
					],
					"name": "horses",
					"outputs": [
						{
							"internalType": "int256",
							"name": "id",
							"type": "int256"
						},
						{
							"internalType": "string",
							"name": "name",
							"type": "string"
						},
						{
							"internalType": "address",
							"name": "owner",
							"type": "address"
						},
						{
							"internalType": "int256",
							"name": "speed",
							"type": "int256"
						},
						{
							"internalType": "int256",
							"name": "acceleration",
							"type": "int256"
						},
						{
							"internalType": "int256",
							"name": "agility",
							"type": "int256"
						},
						{
							"internalType": "int256",
							"name": "stamina",
							"type": "int256"
						},
						{
							"internalType": "int256",
							"name": "strength",
							"type": "int256"
						},
						{
							"internalType": "int256",
							"name": "rarity",
							"type": "int256"
						},
						{
							"internalType": "int256",
							"name": "theta",
							"type": "int256"
						}
					],
					"stateMutability": "view",
					"type": "function"
				},
				{
					"inputs": [
						{
							"internalType": "address",
							"name": "_owner",
							"type": "address"
						},
						{
							"components": [
								{
									"internalType": "int256",
									"name": "id",
									"type": "int256"
								},
								{
									"internalType": "string",
									"name": "name",
									"type": "string"
								},
								{
									"internalType": "address",
									"name": "owner",
									"type": "address"
								},
								{
									"internalType": "int256",
									"name": "speed",
									"type": "int256"
								},
								{
									"internalType": "int256",
									"name": "acceleration",
									"type": "int256"
								},
								{
									"internalType": "int256",
									"name": "agility",
									"type": "int256"
								},
								{
									"internalType": "int256",
									"name": "stamina",
									"type": "int256"
								},
								{
									"internalType": "int256",
									"name": "strength",
									"type": "int256"
								},
								{
									"internalType": "int256",
									"name": "rarity",
									"type": "int256"
								},
								{
									"internalType": "int256",
									"name": "theta",
									"type": "int256"
								}
							],
							"internalType": "struct horsey.Horse",
							"name": "horse",
							"type": "tuple"
						}
					],
					"name": "initialiseHorse",
					"outputs": [],
					"stateMutability": "nonpayable",
					"type": "function"
				},
				{
					"inputs": [
						{
							"internalType": "string",
							"name": "timestamp",
							"type": "string"
						}
					],
					"name": "initialiseRace",
					"outputs": [],
					"stateMutability": "nonpayable",
					"type": "function"
				},
				{
					"inputs": [],
					"name": "race",
					"outputs": [
						{
							"internalType": "string",
							"name": "timestamp",
							"type": "string"
						}
					],
					"stateMutability": "view",
					"type": "function"
				}
			],
			"devdoc": {
				"kind": "dev",
				"methods": {},
				"version": 1
			},
			"evm": {
				"assembly": "    /* \"contracts/horsey.sol\":64:1907  contract horsey {... */\n  mstore(0x40, 0x80)\n    /* \"contracts/horsey.sol\":606:607  0 */\n  0x00\n    /* \"contracts/horsey.sol\":577:607  int private horseIdCounter = 0 */\n  0x04\n  sstore\n    /* \"contracts/horsey.sol\":64:1907  contract horsey {... */\n  callvalue\n  dup1\n  iszero\n  tag_1\n  jumpi\n  0x00\n  dup1\n  revert\ntag_1:\n  pop\n  dataSize(sub_0)\n  dup1\n  dataOffset(sub_0)\n  0x00\n  codecopy\n  0x00\n  return\nstop\n\nsub_0: assembly {\n        /* \"contracts/horsey.sol\":64:1907  contract horsey {... */\n      mstore(0x40, 0x80)\n      callvalue\n      dup1\n      iszero\n      tag_1\n      jumpi\n      0x00\n      dup1\n      revert\n    tag_1:\n      pop\n      jumpi(tag_2, lt(calldatasize, 0x04))\n      shr(0xe0, calldataload(0x00))\n      dup1\n      0x93320afa\n      gt\n      tag_10\n      jumpi\n      dup1\n      0x93320afa\n      eq\n      tag_6\n      jumpi\n      dup1\n      0x9b3935a3\n      eq\n      tag_7\n      jumpi\n      dup1\n      0xdfb9ba3a\n      eq\n      tag_8\n      jumpi\n      dup1\n      0xe548cb55\n      eq\n      tag_9\n      jumpi\n      jump(tag_2)\n    tag_10:\n      dup1\n      0x0c6317e8\n      eq\n      tag_3\n      jumpi\n      dup1\n      0x68c9f988\n      eq\n      tag_4\n      jumpi\n      dup1\n      0x691ba73a\n      eq\n      tag_5\n      jumpi\n    tag_2:\n      0x00\n      dup1\n      revert\n        /* \"contracts/horsey.sol\":1167:1387  function addRaceHorse(int horseId) public {... */\n    tag_3:\n      tag_11\n      0x04\n      dup1\n      calldatasize\n      sub\n      dup2\n      add\n      swap1\n      tag_12\n      swap2\n      swap1\n      tag_13\n      jump\t// in\n    tag_12:\n      tag_14\n      jump\t// in\n    tag_11:\n      stop\n        /* \"contracts/horsey.sol\":1393:1647  function bidOnHorse(address _owner, int horseId, uint bidAmount) public {... */\n    tag_4:\n      tag_15\n      0x04\n      dup1\n      calldatasize\n      sub\n      dup2\n      add\n      swap1\n      tag_16\n      swap2\n      swap1\n      tag_17\n      jump\t// in\n    tag_16:\n      tag_18\n      jump\t// in\n    tag_15:\n      stop\n        /* \"contracts/horsey.sol\":550:570  RaceData public race */\n    tag_5:\n      tag_19\n      tag_20\n      jump\t// in\n    tag_19:\n      mload(0x40)\n      tag_21\n      swap2\n      swap1\n      tag_22\n      jump\t// in\n    tag_21:\n      mload(0x40)\n      dup1\n      swap2\n      sub\n      swap1\n      return\n        /* \"contracts/horsey.sol\":505:544  mapping(address => Horse) public horses */\n    tag_6:\n      tag_23\n      0x04\n      dup1\n      calldatasize\n      sub\n      dup2\n      add\n      swap1\n      tag_24\n      swap2\n      swap1\n      tag_25\n      jump\t// in\n    tag_24:\n      tag_26\n      jump\t// in\n    tag_23:\n      mload(0x40)\n      tag_27\n      swap11\n      swap10\n      swap9\n      swap8\n      swap7\n      swap6\n      swap5\n      swap4\n      swap3\n      swap2\n      swap1\n      tag_28\n      jump\t// in\n    tag_27:\n      mload(0x40)\n      dup1\n      swap2\n      sub\n      swap1\n      return\n        /* \"contracts/horsey.sol\":613:815  function initialiseHorse(address _owner, Horse memory horse) public {... */\n    tag_7:\n      tag_29\n      0x04\n      dup1\n      calldatasize\n      sub\n      dup2\n      add\n      swap1\n      tag_30\n      swap2\n      swap1\n      tag_31\n      jump\t// in\n    tag_30:\n      tag_32\n      jump\t// in\n    tag_29:\n      stop\n        /* \"contracts/horsey.sol\":1062:1161  function initialiseRace(string memory timestamp) public {... */\n    tag_8:\n      tag_33\n      0x04\n      dup1\n      calldatasize\n      sub\n      dup2\n      add\n      swap1\n      tag_34\n      swap2\n      swap1\n      tag_35\n      jump\t// in\n    tag_34:\n      tag_36\n      jump\t// in\n    tag_33:\n      stop\n        /* \"contracts/horsey.sol\":821:1056  function breedOrExhaustHorse(... */\n    tag_9:\n      tag_37\n      0x04\n      dup1\n      calldatasize\n      sub\n      dup2\n      add\n      swap1\n      tag_38\n      swap2\n      swap1\n      tag_31\n      jump\t// in\n    tag_38:\n      tag_39\n      jump\t// in\n    tag_37:\n      stop\n        /* \"contracts/horsey.sol\":1167:1387  function addRaceHorse(int horseId) public {... */\n    tag_14:\n        /* \"contracts/horsey.sol\":1246:1248  10 */\n      0x0a\n        /* \"contracts/horsey.sol\":1227:1231  race */\n      0x01\n        /* \"contracts/horsey.sol\":1227:1238  race.horses */\n      dup1\n      add\n        /* \"contracts/horsey.sol\":1227:1245  race.horses.length */\n      dup1\n      sload\n      swap1\n      pop\n        /* \"contracts/horsey.sol\":1227:1248  race.horses.length<10 */\n      lt\n        /* \"contracts/horsey.sol\":1219:1264  require(race.horses.length<10,\"Race is full\") */\n      tag_41\n      jumpi\n      mload(0x40)\n      0x08c379a000000000000000000000000000000000000000000000000000000000\n      dup2\n      mstore\n      0x04\n      add\n      tag_42\n      swap1\n      tag_43\n      jump\t// in\n    tag_42:\n      mload(0x40)\n      dup1\n      swap2\n      sub\n      swap1\n      revert\n    tag_41:\n        /* \"contracts/horsey.sol\":1314:1319  false */\n      0x00\n        /* \"contracts/horsey.sol\":1282:1319  contains(race.horses, horseId)==false */\n      iszero\n      iszero\n        /* \"contracts/horsey.sol\":1282:1312  contains(race.horses, horseId) */\n      tag_44\n        /* \"contracts/horsey.sol\":1291:1295  race */\n      0x01\n        /* \"contracts/horsey.sol\":1291:1302  race.horses */\n      dup1\n      add\n        /* \"contracts/horsey.sol\":1282:1312  contains(race.horses, horseId) */\n      dup1\n      sload\n      dup1\n      0x20\n      mul\n      0x20\n      add\n      mload(0x40)\n      swap1\n      dup2\n      add\n      0x40\n      mstore\n      dup1\n      swap3\n      swap2\n      swap1\n      dup2\n      dup2\n      mstore\n      0x20\n      add\n      dup3\n      dup1\n      sload\n      dup1\n      iszero\n      tag_45\n      jumpi\n      0x20\n      mul\n      dup3\n      add\n      swap2\n      swap1\n      0x00\n      mstore\n      keccak256(0x00, 0x20)\n      swap1\n    tag_46:\n      dup2\n      sload\n      dup2\n      mstore\n      0x20\n      add\n      swap1\n      0x01\n      add\n      swap1\n      dup1\n      dup4\n      gt\n      tag_46\n      jumpi\n    tag_45:\n      pop\n      pop\n      pop\n      pop\n      pop\n        /* \"contracts/horsey.sol\":1304:1311  horseId */\n      dup4\n        /* \"contracts/horsey.sol\":1282:1290  contains */\n      tag_47\n        /* \"contracts/horsey.sol\":1282:1312  contains(race.horses, horseId) */\n      jump\t// in\n    tag_44:\n        /* \"contracts/horsey.sol\":1282:1319  contains(race.horses, horseId)==false */\n      iszero\n      iszero\n      eq\n        /* \"contracts/horsey.sol\":1274:1345  require(contains(race.horses, horseId)==false, \"Horse already present\") */\n      tag_48\n      jumpi\n      mload(0x40)\n      0x08c379a000000000000000000000000000000000000000000000000000000000\n      dup2\n      mstore\n      0x04\n      add\n      tag_49\n      swap1\n      tag_50\n      jump\t// in\n    tag_49:\n      mload(0x40)\n      dup1\n      swap2\n      sub\n      swap1\n      revert\n    tag_48:\n        /* \"contracts/horsey.sol\":1355:1359  race */\n      0x01\n        /* \"contracts/horsey.sol\":1355:1366  race.horses */\n      dup1\n      add\n        /* \"contracts/horsey.sol\":1372:1379  horseId */\n      dup2\n        /* \"contracts/horsey.sol\":1355:1380  race.horses.push(horseId) */\n      swap1\n      dup1\n      0x01\n      dup2\n      sload\n      add\n      dup1\n      dup3\n      sstore\n      dup1\n      swap2\n      pop\n      pop\n      0x01\n      swap1\n      sub\n      swap1\n      0x00\n      mstore\n      keccak256(0x00, 0x20)\n      add\n      0x00\n      swap1\n      swap2\n      swap1\n      swap2\n      swap1\n      swap2\n      pop\n      sstore\n        /* \"contracts/horsey.sol\":1167:1387  function addRaceHorse(int horseId) public {... */\n      pop\n      jump\t// out\n        /* \"contracts/horsey.sol\":1393:1647  function bidOnHorse(address _owner, int horseId, uint bidAmount) public {... */\n    tag_18:\n        /* \"contracts/horsey.sol\":1515:1519  true */\n      0x01\n        /* \"contracts/horsey.sol\":1483:1519  contains(race.horses, horseId)==true */\n      iszero\n      iszero\n        /* \"contracts/horsey.sol\":1483:1513  contains(race.horses, horseId) */\n      tag_53\n        /* \"contracts/horsey.sol\":1492:1496  race */\n      0x01\n        /* \"contracts/horsey.sol\":1492:1503  race.horses */\n      dup1\n      add\n        /* \"contracts/horsey.sol\":1483:1513  contains(race.horses, horseId) */\n      dup1\n      sload\n      dup1\n      0x20\n      mul\n      0x20\n      add\n      mload(0x40)\n      swap1\n      dup2\n      add\n      0x40\n      mstore\n      dup1\n      swap3\n      swap2\n      swap1\n      dup2\n      dup2\n      mstore\n      0x20\n      add\n      dup3\n      dup1\n      sload\n      dup1\n      iszero\n      tag_54\n      jumpi\n      0x20\n      mul\n      dup3\n      add\n      swap2\n      swap1\n      0x00\n      mstore\n      keccak256(0x00, 0x20)\n      swap1\n    tag_55:\n      dup2\n      sload\n      dup2\n      mstore\n      0x20\n      add\n      swap1\n      0x01\n      add\n      swap1\n      dup1\n      dup4\n      gt\n      tag_55\n      jumpi\n    tag_54:\n      pop\n      pop\n      pop\n      pop\n      pop\n        /* \"contracts/horsey.sol\":1505:1512  horseId */\n      dup5\n        /* \"contracts/horsey.sol\":1483:1491  contains */\n      tag_47\n        /* \"contracts/horsey.sol\":1483:1513  contains(race.horses, horseId) */\n      jump\t// in\n    tag_53:\n        /* \"contracts/horsey.sol\":1483:1519  contains(race.horses, horseId)==true */\n      iszero\n      iszero\n      eq\n        /* \"contracts/horsey.sol\":1475:1545  require(contains(race.horses, horseId)==true, \"Horse not in the race\") */\n      tag_56\n      jumpi\n      mload(0x40)\n      0x08c379a000000000000000000000000000000000000000000000000000000000\n      dup2\n      mstore\n      0x04\n      add\n      tag_57\n      swap1\n      tag_58\n      jump\t// in\n    tag_57:\n      mload(0x40)\n      dup1\n      swap2\n      sub\n      swap1\n      revert\n    tag_56:\n        /* \"contracts/horsey.sol\":1555:1573  Bid memory currBid */\n      0x00\n        /* \"contracts/horsey.sol\":1576:1607  Bid(_owner, horseId, bidAmount) */\n      mload(0x40)\n      dup1\n      0x60\n      add\n      0x40\n      mstore\n      dup1\n        /* \"contracts/horsey.sol\":1580:1586  _owner */\n      dup6\n        /* \"contracts/horsey.sol\":1576:1607  Bid(_owner, horseId, bidAmount) */\n      0xffffffffffffffffffffffffffffffffffffffff\n      and\n      dup2\n      mstore\n      0x20\n      add\n        /* \"contracts/horsey.sol\":1588:1595  horseId */\n      dup5\n        /* \"contracts/horsey.sol\":1576:1607  Bid(_owner, horseId, bidAmount) */\n      dup2\n      mstore\n      0x20\n      add\n        /* \"contracts/horsey.sol\":1597:1606  bidAmount */\n      dup4\n        /* \"contracts/horsey.sol\":1576:1607  Bid(_owner, horseId, bidAmount) */\n      dup2\n      mstore\n      pop\n        /* \"contracts/horsey.sol\":1555:1607  Bid memory currBid = Bid(_owner, horseId, bidAmount) */\n      swap1\n      pop\n        /* \"contracts/horsey.sol\":1617:1621  race */\n      0x01\n        /* \"contracts/horsey.sol\":1617:1626  race.bids */\n      0x02\n      add\n        /* \"contracts/horsey.sol\":1632:1639  currBid */\n      dup2\n        /* \"contracts/horsey.sol\":1617:1640  race.bids.push(currBid) */\n      swap1\n      dup1\n      0x01\n      dup2\n      sload\n      add\n      dup1\n      dup3\n      sstore\n      dup1\n      swap2\n      pop\n      pop\n      0x01\n      swap1\n      sub\n      swap1\n      0x00\n      mstore\n      keccak256(0x00, 0x20)\n      swap1\n      0x03\n      mul\n      add\n      0x00\n      swap1\n      swap2\n      swap1\n      swap2\n      swap1\n      swap2\n      pop\n      0x00\n      dup3\n      add\n      mload\n      dup2\n      0x00\n      add\n      exp(0x0100, 0x00)\n      dup2\n      sload\n      dup2\n      0xffffffffffffffffffffffffffffffffffffffff\n      mul\n      not\n      and\n      swap1\n      dup4\n      0xffffffffffffffffffffffffffffffffffffffff\n      and\n      mul\n      or\n      swap1\n      sstore\n      pop\n      0x20\n      dup3\n      add\n      mload\n      dup2\n      0x01\n      add\n      sstore\n      0x40\n      dup3\n      add\n      mload\n      dup2\n      0x02\n      add\n      sstore\n      pop\n      pop\n        /* \"contracts/horsey.sol\":1465:1647  {... */\n      pop\n        /* \"contracts/horsey.sol\":1393:1647  function bidOnHorse(address _owner, int horseId, uint bidAmount) public {... */\n      pop\n      pop\n      pop\n      jump\t// out\n        /* \"contracts/horsey.sol\":550:570  RaceData public race */\n    tag_20:\n      0x01\n      dup1\n      0x00\n      add\n      dup1\n      sload\n      tag_60\n      swap1\n      tag_61\n      jump\t// in\n    tag_60:\n      dup1\n      0x1f\n      add\n      0x20\n      dup1\n      swap2\n      div\n      mul\n      0x20\n      add\n      mload(0x40)\n      swap1\n      dup2\n      add\n      0x40\n      mstore\n      dup1\n      swap3\n      swap2\n      swap1\n      dup2\n      dup2\n      mstore\n      0x20\n      add\n      dup3\n      dup1\n      sload\n      tag_62\n      swap1\n      tag_61\n      jump\t// in\n    tag_62:\n      dup1\n      iszero\n      tag_63\n      jumpi\n      dup1\n      0x1f\n      lt\n      tag_64\n      jumpi\n      0x0100\n      dup1\n      dup4\n      sload\n      div\n      mul\n      dup4\n      mstore\n      swap2\n      0x20\n      add\n      swap2\n      jump(tag_63)\n    tag_64:\n      dup3\n      add\n      swap2\n      swap1\n      0x00\n      mstore\n      keccak256(0x00, 0x20)\n      swap1\n    tag_65:\n      dup2\n      sload\n      dup2\n      mstore\n      swap1\n      0x01\n      add\n      swap1\n      0x20\n      add\n      dup1\n      dup4\n      gt\n      tag_65\n      jumpi\n      dup3\n      swap1\n      sub\n      0x1f\n      and\n      dup3\n      add\n      swap2\n    tag_63:\n      pop\n      pop\n      pop\n      pop\n      pop\n      swap1\n      pop\n      dup2\n      jump\t// out\n        /* \"contracts/horsey.sol\":505:544  mapping(address => Horse) public horses */\n    tag_26:\n      mstore(0x20, 0x00)\n      dup1\n      0x00\n      mstore\n      keccak256(0x00, 0x40)\n      0x00\n      swap2\n      pop\n      swap1\n      pop\n      dup1\n      0x00\n      add\n      sload\n      swap1\n      dup1\n      0x01\n      add\n      dup1\n      sload\n      tag_66\n      swap1\n      tag_61\n      jump\t// in\n    tag_66:\n      dup1\n      0x1f\n      add\n      0x20\n      dup1\n      swap2\n      div\n      mul\n      0x20\n      add\n      mload(0x40)\n      swap1\n      dup2\n      add\n      0x40\n      mstore\n      dup1\n      swap3\n      swap2\n      swap1\n      dup2\n      dup2\n      mstore\n      0x20\n      add\n      dup3\n      dup1\n      sload\n      tag_67\n      swap1\n      tag_61\n      jump\t// in\n    tag_67:\n      dup1\n      iszero\n      tag_68\n      jumpi\n      dup1\n      0x1f\n      lt\n      tag_69\n      jumpi\n      0x0100\n      dup1\n      dup4\n      sload\n      div\n      mul\n      dup4\n      mstore\n      swap2\n      0x20\n      add\n      swap2\n      jump(tag_68)\n    tag_69:\n      dup3\n      add\n      swap2\n      swap1\n      0x00\n      mstore\n      keccak256(0x00, 0x20)\n      swap1\n    tag_70:\n      dup2\n      sload\n      dup2\n      mstore\n      swap1\n      0x01\n      add\n      swap1\n      0x20\n      add\n      dup1\n      dup4\n      gt\n      tag_70\n      jumpi\n      dup3\n      swap1\n      sub\n      0x1f\n      and\n      dup3\n      add\n      swap2\n    tag_68:\n      pop\n      pop\n      pop\n      pop\n      pop\n      swap1\n      dup1\n      0x02\n      add\n      0x00\n      swap1\n      sload\n      swap1\n      0x0100\n      exp\n      swap1\n      div\n      0xffffffffffffffffffffffffffffffffffffffff\n      and\n      swap1\n      dup1\n      0x03\n      add\n      sload\n      swap1\n      dup1\n      0x04\n      add\n      sload\n      swap1\n      dup1\n      0x05\n      add\n      sload\n      swap1\n      dup1\n      0x06\n      add\n      sload\n      swap1\n      dup1\n      0x07\n      add\n      sload\n      swap1\n      dup1\n      0x08\n      add\n      sload\n      swap1\n      dup1\n      0x09\n      add\n      sload\n      swap1\n      pop\n      dup11\n      jump\t// out\n        /* \"contracts/horsey.sol\":613:815  function initialiseHorse(address _owner, Horse memory horse) public {... */\n    tag_32:\n        /* \"contracts/horsey.sol\":713:719  _owner */\n      dup2\n        /* \"contracts/horsey.sol\":699:719  msg.sender == _owner */\n      0xffffffffffffffffffffffffffffffffffffffff\n      and\n        /* \"contracts/horsey.sol\":699:709  msg.sender */\n      caller\n        /* \"contracts/horsey.sol\":699:719  msg.sender == _owner */\n      0xffffffffffffffffffffffffffffffffffffffff\n      and\n      eq\n        /* \"contracts/horsey.sol\":691:741  require(msg.sender == _owner, \"Unapproved caller\") */\n      tag_72\n      jumpi\n      mload(0x40)\n      0x08c379a000000000000000000000000000000000000000000000000000000000\n      dup2\n      mstore\n      0x04\n      add\n      tag_73\n      swap1\n      tag_74\n      jump\t// in\n    tag_73:\n      mload(0x40)\n      dup1\n      swap2\n      sub\n      swap1\n      revert\n    tag_72:\n        /* \"contracts/horsey.sol\":760:774  horseIdCounter */\n      0x04\n      0x00\n        /* \"contracts/horsey.sol\":760:776  horseIdCounter++ */\n      dup2\n      sload\n      dup1\n      swap3\n      swap2\n      swap1\n      tag_75\n      swap1\n      tag_76\n      jump\t// in\n    tag_75:\n      swap2\n      swap1\n      pop\n      sstore\n        /* \"contracts/horsey.sol\":751:756  horse */\n      dup2\n        /* \"contracts/horsey.sol\":751:759  horse.id */\n      0x00\n      add\n        /* \"contracts/horsey.sol\":751:776  horse.id=horseIdCounter++ */\n      dup2\n      dup2\n      mstore\n      pop\n      pop\n        /* \"contracts/horsey.sol\":803:808  horse */\n      dup1\n        /* \"contracts/horsey.sol\":786:792  horses */\n      0x00\n        /* \"contracts/horsey.sol\":786:800  horses[_owner] */\n      dup1\n        /* \"contracts/horsey.sol\":793:799  _owner */\n      dup5\n        /* \"contracts/horsey.sol\":786:800  horses[_owner] */\n      0xffffffffffffffffffffffffffffffffffffffff\n      and\n      0xffffffffffffffffffffffffffffffffffffffff\n      and\n      dup2\n      mstore\n      0x20\n      add\n      swap1\n      dup2\n      mstore\n      0x20\n      add\n      0x00\n      keccak256\n        /* \"contracts/horsey.sol\":786:808  horses[_owner] = horse */\n      0x00\n      dup3\n      add\n      mload\n      dup2\n      0x00\n      add\n      sstore\n      0x20\n      dup3\n      add\n      mload\n      dup2\n      0x01\n      add\n      swap1\n      dup2\n      tag_77\n      swap2\n      swap1\n      tag_78\n      jump\t// in\n    tag_77:\n      pop\n      0x40\n      dup3\n      add\n      mload\n      dup2\n      0x02\n      add\n      exp(0x0100, 0x00)\n      dup2\n      sload\n      dup2\n      0xffffffffffffffffffffffffffffffffffffffff\n      mul\n      not\n      and\n      swap1\n      dup4\n      0xffffffffffffffffffffffffffffffffffffffff\n      and\n      mul\n      or\n      swap1\n      sstore\n      pop\n      0x60\n      dup3\n      add\n      mload\n      dup2\n      0x03\n      add\n      sstore\n      0x80\n      dup3\n      add\n      mload\n      dup2\n      0x04\n      add\n      sstore\n      0xa0\n      dup3\n      add\n      mload\n      dup2\n      0x05\n      add\n      sstore\n      0xc0\n      dup3\n      add\n      mload\n      dup2\n      0x06\n      add\n      sstore\n      0xe0\n      dup3\n      add\n      mload\n      dup2\n      0x07\n      add\n      sstore\n      0x0100\n      dup3\n      add\n      mload\n      dup2\n      0x08\n      add\n      sstore\n      0x0120\n      dup3\n      add\n      mload\n      dup2\n      0x09\n      add\n      sstore\n      swap1\n      pop\n      pop\n        /* \"contracts/horsey.sol\":613:815  function initialiseHorse(address _owner, Horse memory horse) public {... */\n      pop\n      pop\n      jump\t// out\n        /* \"contracts/horsey.sol\":1062:1161  function initialiseRace(string memory timestamp) public {... */\n    tag_36:\n        /* \"contracts/horsey.sol\":1145:1154  timestamp */\n      dup1\n        /* \"contracts/horsey.sol\":1128:1132  race */\n      0x01\n        /* \"contracts/horsey.sol\":1128:1142  race.timestamp */\n      0x00\n      add\n        /* \"contracts/horsey.sol\":1128:1154  race.timestamp = timestamp */\n      swap1\n      dup2\n      tag_80\n      swap2\n      swap1\n      tag_78\n      jump\t// in\n    tag_80:\n      pop\n        /* \"contracts/horsey.sol\":1062:1161  function initialiseRace(string memory timestamp) public {... */\n      pop\n      jump\t// out\n        /* \"contracts/horsey.sol\":821:1056  function breedOrExhaustHorse(... */\n    tag_39:\n        /* \"contracts/horsey.sol\":964:970  _owner */\n      dup2\n        /* \"contracts/horsey.sol\":950:970  msg.sender == _owner */\n      0xffffffffffffffffffffffffffffffffffffffff\n      and\n        /* \"contracts/horsey.sol\":950:960  msg.sender */\n      caller\n        /* \"contracts/horsey.sol\":950:970  msg.sender == _owner */\n      0xffffffffffffffffffffffffffffffffffffffff\n      and\n      eq\n        /* \"contracts/horsey.sol\":928:1014  require(... */\n      tag_82\n      jumpi\n      mload(0x40)\n      0x08c379a000000000000000000000000000000000000000000000000000000000\n      dup2\n      mstore\n      0x04\n      add\n      tag_83\n      swap1\n      tag_74\n      jump\t// in\n    tag_83:\n      mload(0x40)\n      dup1\n      swap2\n      sub\n      swap1\n      revert\n    tag_82:\n        /* \"contracts/horsey.sol\":1041:1049  newHorse */\n      dup1\n        /* \"contracts/horsey.sol\":1024:1030  horses */\n      0x00\n        /* \"contracts/horsey.sol\":1024:1038  horses[_owner] */\n      dup1\n        /* \"contracts/horsey.sol\":1031:1037  _owner */\n      dup5\n        /* \"contracts/horsey.sol\":1024:1038  horses[_owner] */\n      0xffffffffffffffffffffffffffffffffffffffff\n      and\n      0xffffffffffffffffffffffffffffffffffffffff\n      and\n      dup2\n      mstore\n      0x20\n      add\n      swap1\n      dup2\n      mstore\n      0x20\n      add\n      0x00\n      keccak256\n        /* \"contracts/horsey.sol\":1024:1049  horses[_owner] = newHorse */\n      0x00\n      dup3\n      add\n      mload\n      dup2\n      0x00\n      add\n      sstore\n      0x20\n      dup3\n      add\n      mload\n      dup2\n      0x01\n      add\n      swap1\n      dup2\n      tag_84\n      swap2\n      swap1\n      tag_78\n      jump\t// in\n    tag_84:\n      pop\n      0x40\n      dup3\n      add\n      mload\n      dup2\n      0x02\n      add\n      exp(0x0100, 0x00)\n      dup2\n      sload\n      dup2\n      0xffffffffffffffffffffffffffffffffffffffff\n      mul\n      not\n      and\n      swap1\n      dup4\n      0xffffffffffffffffffffffffffffffffffffffff\n      and\n      mul\n      or\n      swap1\n      sstore\n      pop\n      0x60\n      dup3\n      add\n      mload\n      dup2\n      0x03\n      add\n      sstore\n      0x80\n      dup3\n      add\n      mload\n      dup2\n      0x04\n      add\n      sstore\n      0xa0\n      dup3\n      add\n      mload\n      dup2\n      0x05\n      add\n      sstore\n      0xc0\n      dup3\n      add\n      mload\n      dup2\n      0x06\n      add\n      sstore\n      0xe0\n      dup3\n      add\n      mload\n      dup2\n      0x07\n      add\n      sstore\n      0x0100\n      dup3\n      add\n      mload\n      dup2\n      0x08\n      add\n      sstore\n      0x0120\n      dup3\n      add\n      mload\n      dup2\n      0x09\n      add\n      sstore\n      swap1\n      pop\n      pop\n        /* \"contracts/horsey.sol\":821:1056  function breedOrExhaustHorse(... */\n      pop\n      pop\n      jump\t// out\n        /* \"contracts/horsey.sol\":1653:1904  function contains(int[] memory array, int target) private pure returns (bool) {... */\n    tag_47:\n        /* \"contracts/horsey.sol\":1725:1729  bool */\n      0x00\n        /* \"contracts/horsey.sol\":1746:1755  uint256 i */\n      dup1\n        /* \"contracts/horsey.sol\":1758:1759  0 */\n      0x00\n        /* \"contracts/horsey.sol\":1746:1759  uint256 i = 0 */\n      swap1\n      pop\n        /* \"contracts/horsey.sol\":1741:1876  for (uint256 i = 0; i < array.length; i++) {... */\n    tag_86:\n        /* \"contracts/horsey.sol\":1765:1770  array */\n      dup4\n        /* \"contracts/horsey.sol\":1765:1777  array.length */\n      mload\n        /* \"contracts/horsey.sol\":1761:1762  i */\n      dup2\n        /* \"contracts/horsey.sol\":1761:1777  i < array.length */\n      lt\n        /* \"contracts/horsey.sol\":1741:1876  for (uint256 i = 0; i < array.length; i++) {... */\n      iszero\n      tag_87\n      jumpi\n        /* \"contracts/horsey.sol\":1814:1820  target */\n      dup3\n        /* \"contracts/horsey.sol\":1802:1807  array */\n      dup5\n        /* \"contracts/horsey.sol\":1808:1809  i */\n      dup3\n        /* \"contracts/horsey.sol\":1802:1810  array[i] */\n      dup2\n      mload\n      dup2\n      lt\n      tag_89\n      jumpi\n      tag_90\n      tag_91\n      jump\t// in\n    tag_90:\n    tag_89:\n      0x20\n      mul\n      0x20\n      add\n      add\n      mload\n        /* \"contracts/horsey.sol\":1802:1820  array[i] == target */\n      sub\n        /* \"contracts/horsey.sol\":1798:1866  if (array[i] == target) {... */\n      tag_92\n      jumpi\n        /* \"contracts/horsey.sol\":1847:1851  true */\n      0x01\n        /* \"contracts/horsey.sol\":1840:1851  return true */\n      swap2\n      pop\n      pop\n      jump(tag_85)\n        /* \"contracts/horsey.sol\":1798:1866  if (array[i] == target) {... */\n    tag_92:\n        /* \"contracts/horsey.sol\":1779:1782  i++ */\n      dup1\n      dup1\n      0x01\n      add\n      swap2\n      pop\n      pop\n        /* \"contracts/horsey.sol\":1741:1876  for (uint256 i = 0; i < array.length; i++) {... */\n      jump(tag_86)\n    tag_87:\n      pop\n        /* \"contracts/horsey.sol\":1892:1897  false */\n      0x00\n        /* \"contracts/horsey.sol\":1885:1897  return false */\n      swap1\n      pop\n        /* \"contracts/horsey.sol\":1653:1904  function contains(int[] memory array, int target) private pure returns (bool) {... */\n    tag_85:\n      swap3\n      swap2\n      pop\n      pop\n      jump\t// out\n        /* \"#utility.yul\":7:82   */\n    tag_93:\n        /* \"#utility.yul\":40:46   */\n      0x00\n        /* \"#utility.yul\":73:75   */\n      0x40\n        /* \"#utility.yul\":67:76   */\n      mload\n        /* \"#utility.yul\":57:76   */\n      swap1\n      pop\n        /* \"#utility.yul\":7:82   */\n      swap1\n      jump\t// out\n        /* \"#utility.yul\":88:205   */\n    tag_94:\n        /* \"#utility.yul\":197:198   */\n      0x00\n        /* \"#utility.yul\":194:195   */\n      dup1\n        /* \"#utility.yul\":187:199   */\n      revert\n        /* \"#utility.yul\":211:328   */\n    tag_95:\n        /* \"#utility.yul\":320:321   */\n      0x00\n        /* \"#utility.yul\":317:318   */\n      dup1\n        /* \"#utility.yul\":310:322   */\n      revert\n        /* \"#utility.yul\":334:410   */\n    tag_96:\n        /* \"#utility.yul\":370:377   */\n      0x00\n        /* \"#utility.yul\":399:404   */\n      dup2\n        /* \"#utility.yul\":388:404   */\n      swap1\n      pop\n        /* \"#utility.yul\":334:410   */\n      swap2\n      swap1\n      pop\n      jump\t// out\n        /* \"#utility.yul\":416:536   */\n    tag_97:\n        /* \"#utility.yul\":488:511   */\n      tag_156\n        /* \"#utility.yul\":505:510   */\n      dup2\n        /* \"#utility.yul\":488:511   */\n      tag_96\n      jump\t// in\n    tag_156:\n        /* \"#utility.yul\":481:486   */\n      dup2\n        /* \"#utility.yul\":478:512   */\n      eq\n        /* \"#utility.yul\":468:530   */\n      tag_157\n      jumpi\n        /* \"#utility.yul\":526:527   */\n      0x00\n        /* \"#utility.yul\":523:524   */\n      dup1\n        /* \"#utility.yul\":516:528   */\n      revert\n        /* \"#utility.yul\":468:530   */\n    tag_157:\n        /* \"#utility.yul\":416:536   */\n      pop\n      jump\t// out\n        /* \"#utility.yul\":542:679   */\n    tag_98:\n        /* \"#utility.yul\":587:592   */\n      0x00\n        /* \"#utility.yul\":625:631   */\n      dup2\n        /* \"#utility.yul\":612:632   */\n      calldataload\n        /* \"#utility.yul\":603:632   */\n      swap1\n      pop\n        /* \"#utility.yul\":641:673   */\n      tag_159\n        /* \"#utility.yul\":667:672   */\n      dup2\n        /* \"#utility.yul\":641:673   */\n      tag_97\n      jump\t// in\n    tag_159:\n        /* \"#utility.yul\":542:679   */\n      swap3\n      swap2\n      pop\n      pop\n      jump\t// out\n        /* \"#utility.yul\":685:1012   */\n    tag_13:\n        /* \"#utility.yul\":743:749   */\n      0x00\n        /* \"#utility.yul\":792:794   */\n      0x20\n        /* \"#utility.yul\":780:789   */\n      dup3\n        /* \"#utility.yul\":771:778   */\n      dup5\n        /* \"#utility.yul\":767:790   */\n      sub\n        /* \"#utility.yul\":763:795   */\n      slt\n        /* \"#utility.yul\":760:879   */\n      iszero\n      tag_161\n      jumpi\n        /* \"#utility.yul\":798:877   */\n      tag_162\n      tag_94\n      jump\t// in\n    tag_162:\n        /* \"#utility.yul\":760:879   */\n    tag_161:\n        /* \"#utility.yul\":918:919   */\n      0x00\n        /* \"#utility.yul\":943:995   */\n      tag_163\n        /* \"#utility.yul\":987:994   */\n      dup5\n        /* \"#utility.yul\":978:984   */\n      dup3\n        /* \"#utility.yul\":967:976   */\n      dup6\n        /* \"#utility.yul\":963:985   */\n      add\n        /* \"#utility.yul\":943:995   */\n      tag_98\n      jump\t// in\n    tag_163:\n        /* \"#utility.yul\":933:995   */\n      swap2\n      pop\n        /* \"#utility.yul\":889:1005   */\n      pop\n        /* \"#utility.yul\":685:1012   */\n      swap3\n      swap2\n      pop\n      pop\n      jump\t// out\n        /* \"#utility.yul\":1018:1144   */\n    tag_99:\n        /* \"#utility.yul\":1055:1062   */\n      0x00\n        /* \"#utility.yul\":1095:1137   */\n      0xffffffffffffffffffffffffffffffffffffffff\n        /* \"#utility.yul\":1088:1093   */\n      dup3\n        /* \"#utility.yul\":1084:1138   */\n      and\n        /* \"#utility.yul\":1073:1138   */\n      swap1\n      pop\n        /* \"#utility.yul\":1018:1144   */\n      swap2\n      swap1\n      pop\n      jump\t// out\n        /* \"#utility.yul\":1150:1246   */\n    tag_100:\n        /* \"#utility.yul\":1187:1194   */\n      0x00\n        /* \"#utility.yul\":1216:1240   */\n      tag_166\n        /* \"#utility.yul\":1234:1239   */\n      dup3\n        /* \"#utility.yul\":1216:1240   */\n      tag_99\n      jump\t// in\n    tag_166:\n        /* \"#utility.yul\":1205:1240   */\n      swap1\n      pop\n        /* \"#utility.yul\":1150:1246   */\n      swap2\n      swap1\n      pop\n      jump\t// out\n        /* \"#utility.yul\":1252:1374   */\n    tag_101:\n        /* \"#utility.yul\":1325:1349   */\n      tag_168\n        /* \"#utility.yul\":1343:1348   */\n      dup2\n        /* \"#utility.yul\":1325:1349   */\n      tag_100\n      jump\t// in\n    tag_168:\n        /* \"#utility.yul\":1318:1323   */\n      dup2\n        /* \"#utility.yul\":1315:1350   */\n      eq\n        /* \"#utility.yul\":1305:1368   */\n      tag_169\n      jumpi\n        /* \"#utility.yul\":1364:1365   */\n      0x00\n        /* \"#utility.yul\":1361:1362   */\n      dup1\n        /* \"#utility.yul\":1354:1366   */\n      revert\n        /* \"#utility.yul\":1305:1368   */\n    tag_169:\n        /* \"#utility.yul\":1252:1374   */\n      pop\n      jump\t// out\n        /* \"#utility.yul\":1380:1519   */\n    tag_102:\n        /* \"#utility.yul\":1426:1431   */\n      0x00\n        /* \"#utility.yul\":1464:1470   */\n      dup2\n        /* \"#utility.yul\":1451:1471   */\n      calldataload\n        /* \"#utility.yul\":1442:1471   */\n      swap1\n      pop\n        /* \"#utility.yul\":1480:1513   */\n      tag_171\n        /* \"#utility.yul\":1507:1512   */\n      dup2\n        /* \"#utility.yul\":1480:1513   */\n      tag_101\n      jump\t// in\n    tag_171:\n        /* \"#utility.yul\":1380:1519   */\n      swap3\n      swap2\n      pop\n      pop\n      jump\t// out\n        /* \"#utility.yul\":1525:1602   */\n    tag_103:\n        /* \"#utility.yul\":1562:1569   */\n      0x00\n        /* \"#utility.yul\":1591:1596   */\n      dup2\n        /* \"#utility.yul\":1580:1596   */\n      swap1\n      pop\n        /* \"#utility.yul\":1525:1602   */\n      swap2\n      swap1\n      pop\n      jump\t// out\n        /* \"#utility.yul\":1608:1730   */\n    tag_104:\n        /* \"#utility.yul\":1681:1705   */\n      tag_174\n        /* \"#utility.yul\":1699:1704   */\n      dup2\n        /* \"#utility.yul\":1681:1705   */\n      tag_103\n      jump\t// in\n    tag_174:\n        /* \"#utility.yul\":1674:1679   */\n      dup2\n        /* \"#utility.yul\":1671:1706   */\n      eq\n        /* \"#utility.yul\":1661:1724   */\n      tag_175\n      jumpi\n        /* \"#utility.yul\":1720:1721   */\n      0x00\n        /* \"#utility.yul\":1717:1718   */\n      dup1\n        /* \"#utility.yul\":1710:1722   */\n      revert\n        /* \"#utility.yul\":1661:1724   */\n    tag_175:\n        /* \"#utility.yul\":1608:1730   */\n      pop\n      jump\t// out\n        /* \"#utility.yul\":1736:1875   */\n    tag_105:\n        /* \"#utility.yul\":1782:1787   */\n      0x00\n        /* \"#utility.yul\":1820:1826   */\n      dup2\n        /* \"#utility.yul\":1807:1827   */\n      calldataload\n        /* \"#utility.yul\":1798:1827   */\n      swap1\n      pop\n        /* \"#utility.yul\":1836:1869   */\n      tag_177\n        /* \"#utility.yul\":1863:1868   */\n      dup2\n        /* \"#utility.yul\":1836:1869   */\n      tag_104\n      jump\t// in\n    tag_177:\n        /* \"#utility.yul\":1736:1875   */\n      swap3\n      swap2\n      pop\n      pop\n      jump\t// out\n        /* \"#utility.yul\":1881:2498   */\n    tag_17:\n        /* \"#utility.yul\":1957:1963   */\n      0x00\n        /* \"#utility.yul\":1965:1971   */\n      dup1\n        /* \"#utility.yul\":1973:1979   */\n      0x00\n        /* \"#utility.yul\":2022:2024   */\n      0x60\n        /* \"#utility.yul\":2010:2019   */\n      dup5\n        /* \"#utility.yul\":2001:2008   */\n      dup7\n        /* \"#utility.yul\":1997:2020   */\n      sub\n        /* \"#utility.yul\":1993:2025   */\n      slt\n        /* \"#utility.yul\":1990:2109   */\n      iszero\n      tag_179\n      jumpi\n        /* \"#utility.yul\":2028:2107   */\n      tag_180\n      tag_94\n      jump\t// in\n    tag_180:\n        /* \"#utility.yul\":1990:2109   */\n    tag_179:\n        /* \"#utility.yul\":2148:2149   */\n      0x00\n        /* \"#utility.yul\":2173:2226   */\n      tag_181\n        /* \"#utility.yul\":2218:2225   */\n      dup7\n        /* \"#utility.yul\":2209:2215   */\n      dup3\n        /* \"#utility.yul\":2198:2207   */\n      dup8\n        /* \"#utility.yul\":2194:2216   */\n      add\n        /* \"#utility.yul\":2173:2226   */\n      tag_102\n      jump\t// in\n    tag_181:\n        /* \"#utility.yul\":2163:2226   */\n      swap4\n      pop\n        /* \"#utility.yul\":2119:2236   */\n      pop\n        /* \"#utility.yul\":2275:2277   */\n      0x20\n        /* \"#utility.yul\":2301:2353   */\n      tag_182\n        /* \"#utility.yul\":2345:2352   */\n      dup7\n        /* \"#utility.yul\":2336:2342   */\n      dup3\n        /* \"#utility.yul\":2325:2334   */\n      dup8\n        /* \"#utility.yul\":2321:2343   */\n      add\n        /* \"#utility.yul\":2301:2353   */\n      tag_98\n      jump\t// in\n    tag_182:\n        /* \"#utility.yul\":2291:2353   */\n      swap3\n      pop\n        /* \"#utility.yul\":2246:2363   */\n      pop\n        /* \"#utility.yul\":2402:2404   */\n      0x40\n        /* \"#utility.yul\":2428:2481   */\n      tag_183\n        /* \"#utility.yul\":2473:2480   */\n      dup7\n        /* \"#utility.yul\":2464:2470   */\n      dup3\n        /* \"#utility.yul\":2453:2462   */\n      dup8\n        /* \"#utility.yul\":2449:2471   */\n      add\n        /* \"#utility.yul\":2428:2481   */\n      tag_105\n      jump\t// in\n    tag_183:\n        /* \"#utility.yul\":2418:2481   */\n      swap2\n      pop\n        /* \"#utility.yul\":2373:2491   */\n      pop\n        /* \"#utility.yul\":1881:2498   */\n      swap3\n      pop\n      swap3\n      pop\n      swap3\n      jump\t// out\n        /* \"#utility.yul\":2504:2603   */\n    tag_106:\n        /* \"#utility.yul\":2556:2562   */\n      0x00\n        /* \"#utility.yul\":2590:2595   */\n      dup2\n        /* \"#utility.yul\":2584:2596   */\n      mload\n        /* \"#utility.yul\":2574:2596   */\n      swap1\n      pop\n        /* \"#utility.yul\":2504:2603   */\n      swap2\n      swap1\n      pop\n      jump\t// out\n        /* \"#utility.yul\":2609:2778   */\n    tag_107:\n        /* \"#utility.yul\":2693:2704   */\n      0x00\n        /* \"#utility.yul\":2727:2733   */\n      dup3\n        /* \"#utility.yul\":2722:2725   */\n      dup3\n        /* \"#utility.yul\":2715:2734   */\n      mstore\n        /* \"#utility.yul\":2767:2771   */\n      0x20\n        /* \"#utility.yul\":2762:2765   */\n      dup3\n        /* \"#utility.yul\":2758:2772   */\n      add\n        /* \"#utility.yul\":2743:2772   */\n      swap1\n      pop\n        /* \"#utility.yul\":2609:2778   */\n      swap3\n      swap2\n      pop\n      pop\n      jump\t// out\n        /* \"#utility.yul\":2784:2923   */\n    tag_108:\n        /* \"#utility.yul\":2873:2879   */\n      dup3\n        /* \"#utility.yul\":2868:2871   */\n      dup2\n        /* \"#utility.yul\":2863:2866   */\n      dup4\n        /* \"#utility.yul\":2857:2880   */\n      mcopy\n        /* \"#utility.yul\":2914:2915   */\n      0x00\n        /* \"#utility.yul\":2905:2911   */\n      dup4\n        /* \"#utility.yul\":2900:2903   */\n      dup4\n        /* \"#utility.yul\":2896:2912   */\n      add\n        /* \"#utility.yul\":2889:2916   */\n      mstore\n        /* \"#utility.yul\":2784:2923   */\n      pop\n      pop\n      pop\n      jump\t// out\n        /* \"#utility.yul\":2929:3031   */\n    tag_109:\n        /* \"#utility.yul\":2970:2976   */\n      0x00\n        /* \"#utility.yul\":3021:3023   */\n      0x1f\n        /* \"#utility.yul\":3017:3024   */\n      not\n        /* \"#utility.yul\":3012:3014   */\n      0x1f\n        /* \"#utility.yul\":3005:3010   */\n      dup4\n        /* \"#utility.yul\":3001:3015   */\n      add\n        /* \"#utility.yul\":2997:3025   */\n      and\n        /* \"#utility.yul\":2987:3025   */\n      swap1\n      pop\n        /* \"#utility.yul\":2929:3031   */\n      swap2\n      swap1\n      pop\n      jump\t// out\n        /* \"#utility.yul\":3037:3414   */\n    tag_110:\n        /* \"#utility.yul\":3125:3128   */\n      0x00\n        /* \"#utility.yul\":3153:3192   */\n      tag_189\n        /* \"#utility.yul\":3186:3191   */\n      dup3\n        /* \"#utility.yul\":3153:3192   */\n      tag_106\n      jump\t// in\n    tag_189:\n        /* \"#utility.yul\":3208:3279   */\n      tag_190\n        /* \"#utility.yul\":3272:3278   */\n      dup2\n        /* \"#utility.yul\":3267:3270   */\n      dup6\n        /* \"#utility.yul\":3208:3279   */\n      tag_107\n      jump\t// in\n    tag_190:\n        /* \"#utility.yul\":3201:3279   */\n      swap4\n      pop\n        /* \"#utility.yul\":3288:3353   */\n      tag_191\n        /* \"#utility.yul\":3346:3352   */\n      dup2\n        /* \"#utility.yul\":3341:3344   */\n      dup6\n        /* \"#utility.yul\":3334:3338   */\n      0x20\n        /* \"#utility.yul\":3327:3332   */\n      dup7\n        /* \"#utility.yul\":3323:3339   */\n      add\n        /* \"#utility.yul\":3288:3353   */\n      tag_108\n      jump\t// in\n    tag_191:\n        /* \"#utility.yul\":3378:3407   */\n      tag_192\n        /* \"#utility.yul\":3400:3406   */\n      dup2\n        /* \"#utility.yul\":3378:3407   */\n      tag_109\n      jump\t// in\n    tag_192:\n        /* \"#utility.yul\":3373:3376   */\n      dup5\n        /* \"#utility.yul\":3369:3408   */\n      add\n        /* \"#utility.yul\":3362:3408   */\n      swap2\n      pop\n        /* \"#utility.yul\":3129:3414   */\n      pop\n        /* \"#utility.yul\":3037:3414   */\n      swap3\n      swap2\n      pop\n      pop\n      jump\t// out\n        /* \"#utility.yul\":3420:3733   */\n    tag_22:\n        /* \"#utility.yul\":3533:3537   */\n      0x00\n        /* \"#utility.yul\":3571:3573   */\n      0x20\n        /* \"#utility.yul\":3560:3569   */\n      dup3\n        /* \"#utility.yul\":3556:3574   */\n      add\n        /* \"#utility.yul\":3548:3574   */\n      swap1\n      pop\n        /* \"#utility.yul\":3620:3629   */\n      dup2\n        /* \"#utility.yul\":3614:3618   */\n      dup2\n        /* \"#utility.yul\":3610:3630   */\n      sub\n        /* \"#utility.yul\":3606:3607   */\n      0x00\n        /* \"#utility.yul\":3595:3604   */\n      dup4\n        /* \"#utility.yul\":3591:3608   */\n      add\n        /* \"#utility.yul\":3584:3631   */\n      mstore\n        /* \"#utility.yul\":3648:3726   */\n      tag_194\n        /* \"#utility.yul\":3721:3725   */\n      dup2\n        /* \"#utility.yul\":3712:3718   */\n      dup5\n        /* \"#utility.yul\":3648:3726   */\n      tag_110\n      jump\t// in\n    tag_194:\n        /* \"#utility.yul\":3640:3726   */\n      swap1\n      pop\n        /* \"#utility.yul\":3420:3733   */\n      swap3\n      swap2\n      pop\n      pop\n      jump\t// out\n        /* \"#utility.yul\":3739:4068   */\n    tag_25:\n        /* \"#utility.yul\":3798:3804   */\n      0x00\n        /* \"#utility.yul\":3847:3849   */\n      0x20\n        /* \"#utility.yul\":3835:3844   */\n      dup3\n        /* \"#utility.yul\":3826:3833   */\n      dup5\n        /* \"#utility.yul\":3822:3845   */\n      sub\n        /* \"#utility.yul\":3818:3850   */\n      slt\n        /* \"#utility.yul\":3815:3934   */\n      iszero\n      tag_196\n      jumpi\n        /* \"#utility.yul\":3853:3932   */\n      tag_197\n      tag_94\n      jump\t// in\n    tag_197:\n        /* \"#utility.yul\":3815:3934   */\n    tag_196:\n        /* \"#utility.yul\":3973:3974   */\n      0x00\n        /* \"#utility.yul\":3998:4051   */\n      tag_198\n        /* \"#utility.yul\":4043:4050   */\n      dup5\n        /* \"#utility.yul\":4034:4040   */\n      dup3\n        /* \"#utility.yul\":4023:4032   */\n      dup6\n        /* \"#utility.yul\":4019:4041   */\n      add\n        /* \"#utility.yul\":3998:4051   */\n      tag_102\n      jump\t// in\n    tag_198:\n        /* \"#utility.yul\":3988:4051   */\n      swap2\n      pop\n        /* \"#utility.yul\":3944:4061   */\n      pop\n        /* \"#utility.yul\":3739:4068   */\n      swap3\n      swap2\n      pop\n      pop\n      jump\t// out\n        /* \"#utility.yul\":4074:4189   */\n    tag_111:\n        /* \"#utility.yul\":4159:4182   */\n      tag_200\n        /* \"#utility.yul\":4176:4181   */\n      dup2\n        /* \"#utility.yul\":4159:4182   */\n      tag_96\n      jump\t// in\n    tag_200:\n        /* \"#utility.yul\":4154:4157   */\n      dup3\n        /* \"#utility.yul\":4147:4183   */\n      mstore\n        /* \"#utility.yul\":4074:4189   */\n      pop\n      pop\n      jump\t// out\n        /* \"#utility.yul\":4195:4313   */\n    tag_112:\n        /* \"#utility.yul\":4282:4306   */\n      tag_202\n        /* \"#utility.yul\":4300:4305   */\n      dup2\n        /* \"#utility.yul\":4282:4306   */\n      tag_100\n      jump\t// in\n    tag_202:\n        /* \"#utility.yul\":4277:4280   */\n      dup3\n        /* \"#utility.yul\":4270:4307   */\n      mstore\n        /* \"#utility.yul\":4195:4313   */\n      pop\n      pop\n      jump\t// out\n        /* \"#utility.yul\":4319:5597   */\n    tag_28:\n        /* \"#utility.yul\":4668:4672   */\n      0x00\n        /* \"#utility.yul\":4706:4709   */\n      0x0140\n        /* \"#utility.yul\":4695:4704   */\n      dup3\n        /* \"#utility.yul\":4691:4710   */\n      add\n        /* \"#utility.yul\":4683:4710   */\n      swap1\n      pop\n        /* \"#utility.yul\":4720:4789   */\n      tag_204\n        /* \"#utility.yul\":4786:4787   */\n      0x00\n        /* \"#utility.yul\":4775:4784   */\n      dup4\n        /* \"#utility.yul\":4771:4788   */\n      add\n        /* \"#utility.yul\":4762:4768   */\n      dup14\n        /* \"#utility.yul\":4720:4789   */\n      tag_111\n      jump\t// in\n    tag_204:\n        /* \"#utility.yul\":4836:4845   */\n      dup2\n        /* \"#utility.yul\":4830:4834   */\n      dup2\n        /* \"#utility.yul\":4826:4846   */\n      sub\n        /* \"#utility.yul\":4821:4823   */\n      0x20\n        /* \"#utility.yul\":4810:4819   */\n      dup4\n        /* \"#utility.yul\":4806:4824   */\n      add\n        /* \"#utility.yul\":4799:4847   */\n      mstore\n        /* \"#utility.yul\":4864:4942   */\n      tag_205\n        /* \"#utility.yul\":4937:4941   */\n      dup2\n        /* \"#utility.yul\":4928:4934   */\n      dup13\n        /* \"#utility.yul\":4864:4942   */\n      tag_110\n      jump\t// in\n    tag_205:\n        /* \"#utility.yul\":4856:4942   */\n      swap1\n      pop\n        /* \"#utility.yul\":4952:5024   */\n      tag_206\n        /* \"#utility.yul\":5020:5022   */\n      0x40\n        /* \"#utility.yul\":5009:5018   */\n      dup4\n        /* \"#utility.yul\":5005:5023   */\n      add\n        /* \"#utility.yul\":4996:5002   */\n      dup12\n        /* \"#utility.yul\":4952:5024   */\n      tag_112\n      jump\t// in\n    tag_206:\n        /* \"#utility.yul\":5034:5104   */\n      tag_207\n        /* \"#utility.yul\":5100:5102   */\n      0x60\n        /* \"#utility.yul\":5089:5098   */\n      dup4\n        /* \"#utility.yul\":5085:5103   */\n      add\n        /* \"#utility.yul\":5076:5082   */\n      dup11\n        /* \"#utility.yul\":5034:5104   */\n      tag_111\n      jump\t// in\n    tag_207:\n        /* \"#utility.yul\":5114:5185   */\n      tag_208\n        /* \"#utility.yul\":5180:5183   */\n      0x80\n        /* \"#utility.yul\":5169:5178   */\n      dup4\n        /* \"#utility.yul\":5165:5184   */\n      add\n        /* \"#utility.yul\":5156:5162   */\n      dup10\n        /* \"#utility.yul\":5114:5185   */\n      tag_111\n      jump\t// in\n    tag_208:\n        /* \"#utility.yul\":5195:5266   */\n      tag_209\n        /* \"#utility.yul\":5261:5264   */\n      0xa0\n        /* \"#utility.yul\":5250:5259   */\n      dup4\n        /* \"#utility.yul\":5246:5265   */\n      add\n        /* \"#utility.yul\":5237:5243   */\n      dup9\n        /* \"#utility.yul\":5195:5266   */\n      tag_111\n      jump\t// in\n    tag_209:\n        /* \"#utility.yul\":5276:5347   */\n      tag_210\n        /* \"#utility.yul\":5342:5345   */\n      0xc0\n        /* \"#utility.yul\":5331:5340   */\n      dup4\n        /* \"#utility.yul\":5327:5346   */\n      add\n        /* \"#utility.yul\":5318:5324   */\n      dup8\n        /* \"#utility.yul\":5276:5347   */\n      tag_111\n      jump\t// in\n    tag_210:\n        /* \"#utility.yul\":5357:5428   */\n      tag_211\n        /* \"#utility.yul\":5423:5426   */\n      0xe0\n        /* \"#utility.yul\":5412:5421   */\n      dup4\n        /* \"#utility.yul\":5408:5427   */\n      add\n        /* \"#utility.yul\":5399:5405   */\n      dup7\n        /* \"#utility.yul\":5357:5428   */\n      tag_111\n      jump\t// in\n    tag_211:\n        /* \"#utility.yul\":5438:5509   */\n      tag_212\n        /* \"#utility.yul\":5504:5507   */\n      0x0100\n        /* \"#utility.yul\":5493:5502   */\n      dup4\n        /* \"#utility.yul\":5489:5508   */\n      add\n        /* \"#utility.yul\":5480:5486   */\n      dup6\n        /* \"#utility.yul\":5438:5509   */\n      tag_111\n      jump\t// in\n    tag_212:\n        /* \"#utility.yul\":5519:5590   */\n      tag_213\n        /* \"#utility.yul\":5585:5588   */\n      0x0120\n        /* \"#utility.yul\":5574:5583   */\n      dup4\n        /* \"#utility.yul\":5570:5589   */\n      add\n        /* \"#utility.yul\":5561:5567   */\n      dup5\n        /* \"#utility.yul\":5519:5590   */\n      tag_111\n      jump\t// in\n    tag_213:\n        /* \"#utility.yul\":4319:5597   */\n      swap12\n      swap11\n      pop\n      pop\n      pop\n      pop\n      pop\n      pop\n      pop\n      pop\n      pop\n      pop\n      pop\n      jump\t// out\n        /* \"#utility.yul\":5603:5720   */\n    tag_113:\n        /* \"#utility.yul\":5712:5713   */\n      0x00\n        /* \"#utility.yul\":5709:5710   */\n      dup1\n        /* \"#utility.yul\":5702:5714   */\n      revert\n        /* \"#utility.yul\":5726:5906   */\n    tag_114:\n        /* \"#utility.yul\":5774:5851   */\n      0x4e487b7100000000000000000000000000000000000000000000000000000000\n        /* \"#utility.yul\":5771:5772   */\n      0x00\n        /* \"#utility.yul\":5764:5852   */\n      mstore\n        /* \"#utility.yul\":5871:5875   */\n      0x41\n        /* \"#utility.yul\":5868:5869   */\n      0x04\n        /* \"#utility.yul\":5861:5876   */\n      mstore\n        /* \"#utility.yul\":5895:5899   */\n      0x24\n        /* \"#utility.yul\":5892:5893   */\n      0x00\n        /* \"#utility.yul\":5885:5900   */\n      revert\n        /* \"#utility.yul\":5912:6193   */\n    tag_115:\n        /* \"#utility.yul\":5995:6022   */\n      tag_217\n        /* \"#utility.yul\":6017:6021   */\n      dup3\n        /* \"#utility.yul\":5995:6022   */\n      tag_109\n      jump\t// in\n    tag_217:\n        /* \"#utility.yul\":5987:5993   */\n      dup2\n        /* \"#utility.yul\":5983:6023   */\n      add\n        /* \"#utility.yul\":6125:6131   */\n      dup2\n        /* \"#utility.yul\":6113:6123   */\n      dup2\n        /* \"#utility.yul\":6110:6132   */\n      lt\n        /* \"#utility.yul\":6089:6107   */\n      0xffffffffffffffff\n        /* \"#utility.yul\":6077:6087   */\n      dup3\n        /* \"#utility.yul\":6074:6108   */\n      gt\n        /* \"#utility.yul\":6071:6133   */\n      or\n        /* \"#utility.yul\":6068:6156   */\n      iszero\n      tag_218\n      jumpi\n        /* \"#utility.yul\":6136:6154   */\n      tag_219\n      tag_114\n      jump\t// in\n    tag_219:\n        /* \"#utility.yul\":6068:6156   */\n    tag_218:\n        /* \"#utility.yul\":6176:6186   */\n      dup1\n        /* \"#utility.yul\":6172:6174   */\n      0x40\n        /* \"#utility.yul\":6165:6187   */\n      mstore\n        /* \"#utility.yul\":5955:6193   */\n      pop\n        /* \"#utility.yul\":5912:6193   */\n      pop\n      pop\n      jump\t// out\n        /* \"#utility.yul\":6199:6328   */\n    tag_116:\n        /* \"#utility.yul\":6233:6239   */\n      0x00\n        /* \"#utility.yul\":6260:6280   */\n      tag_221\n      tag_93\n      jump\t// in\n    tag_221:\n        /* \"#utility.yul\":6250:6280   */\n      swap1\n      pop\n        /* \"#utility.yul\":6289:6322   */\n      tag_222\n        /* \"#utility.yul\":6317:6321   */\n      dup3\n        /* \"#utility.yul\":6309:6315   */\n      dup3\n        /* \"#utility.yul\":6289:6322   */\n      tag_115\n      jump\t// in\n    tag_222:\n        /* \"#utility.yul\":6199:6328   */\n      swap2\n      swap1\n      pop\n      jump\t// out\n        /* \"#utility.yul\":6334:6451   */\n    tag_117:\n        /* \"#utility.yul\":6443:6444   */\n      0x00\n        /* \"#utility.yul\":6440:6441   */\n      dup1\n        /* \"#utility.yul\":6433:6445   */\n      revert\n        /* \"#utility.yul\":6457:6574   */\n    tag_118:\n        /* \"#utility.yul\":6566:6567   */\n      0x00\n        /* \"#utility.yul\":6563:6564   */\n      dup1\n        /* \"#utility.yul\":6556:6568   */\n      revert\n        /* \"#utility.yul\":6580:6697   */\n    tag_119:\n        /* \"#utility.yul\":6689:6690   */\n      0x00\n        /* \"#utility.yul\":6686:6687   */\n      dup1\n        /* \"#utility.yul\":6679:6691   */\n      revert\n        /* \"#utility.yul\":6703:7011   */\n    tag_120:\n        /* \"#utility.yul\":6765:6769   */\n      0x00\n        /* \"#utility.yul\":6855:6873   */\n      0xffffffffffffffff\n        /* \"#utility.yul\":6847:6853   */\n      dup3\n        /* \"#utility.yul\":6844:6874   */\n      gt\n        /* \"#utility.yul\":6841:6897   */\n      iszero\n      tag_227\n      jumpi\n        /* \"#utility.yul\":6877:6895   */\n      tag_228\n      tag_114\n      jump\t// in\n    tag_228:\n        /* \"#utility.yul\":6841:6897   */\n    tag_227:\n        /* \"#utility.yul\":6915:6944   */\n      tag_229\n        /* \"#utility.yul\":6937:6943   */\n      dup3\n        /* \"#utility.yul\":6915:6944   */\n      tag_109\n      jump\t// in\n    tag_229:\n        /* \"#utility.yul\":6907:6944   */\n      swap1\n      pop\n        /* \"#utility.yul\":6999:7003   */\n      0x20\n        /* \"#utility.yul\":6993:6997   */\n      dup2\n        /* \"#utility.yul\":6989:7004   */\n      add\n        /* \"#utility.yul\":6981:7004   */\n      swap1\n      pop\n        /* \"#utility.yul\":6703:7011   */\n      swap2\n      swap1\n      pop\n      jump\t// out\n        /* \"#utility.yul\":7017:7165   */\n    tag_121:\n        /* \"#utility.yul\":7115:7121   */\n      dup3\n        /* \"#utility.yul\":7110:7113   */\n      dup2\n        /* \"#utility.yul\":7105:7108   */\n      dup4\n        /* \"#utility.yul\":7092:7122   */\n      calldatacopy\n        /* \"#utility.yul\":7156:7157   */\n      0x00\n        /* \"#utility.yul\":7147:7153   */\n      dup4\n        /* \"#utility.yul\":7142:7145   */\n      dup4\n        /* \"#utility.yul\":7138:7154   */\n      add\n        /* \"#utility.yul\":7131:7158   */\n      mstore\n        /* \"#utility.yul\":7017:7165   */\n      pop\n      pop\n      pop\n      jump\t// out\n        /* \"#utility.yul\":7171:7596   */\n    tag_122:\n        /* \"#utility.yul\":7249:7254   */\n      0x00\n        /* \"#utility.yul\":7274:7340   */\n      tag_232\n        /* \"#utility.yul\":7290:7339   */\n      tag_233\n        /* \"#utility.yul\":7332:7338   */\n      dup5\n        /* \"#utility.yul\":7290:7339   */\n      tag_120\n      jump\t// in\n    tag_233:\n        /* \"#utility.yul\":7274:7340   */\n      tag_116\n      jump\t// in\n    tag_232:\n        /* \"#utility.yul\":7265:7340   */\n      swap1\n      pop\n        /* \"#utility.yul\":7363:7369   */\n      dup3\n        /* \"#utility.yul\":7356:7361   */\n      dup2\n        /* \"#utility.yul\":7349:7370   */\n      mstore\n        /* \"#utility.yul\":7401:7405   */\n      0x20\n        /* \"#utility.yul\":7394:7399   */\n      dup2\n        /* \"#utility.yul\":7390:7406   */\n      add\n        /* \"#utility.yul\":7439:7442   */\n      dup5\n        /* \"#utility.yul\":7430:7436   */\n      dup5\n        /* \"#utility.yul\":7425:7428   */\n      dup5\n        /* \"#utility.yul\":7421:7437   */\n      add\n        /* \"#utility.yul\":7418:7443   */\n      gt\n        /* \"#utility.yul\":7415:7527   */\n      iszero\n      tag_234\n      jumpi\n        /* \"#utility.yul\":7446:7525   */\n      tag_235\n      tag_119\n      jump\t// in\n    tag_235:\n        /* \"#utility.yul\":7415:7527   */\n    tag_234:\n        /* \"#utility.yul\":7536:7590   */\n      tag_236\n        /* \"#utility.yul\":7583:7589   */\n      dup5\n        /* \"#utility.yul\":7578:7581   */\n      dup3\n        /* \"#utility.yul\":7573:7576   */\n      dup6\n        /* \"#utility.yul\":7536:7590   */\n      tag_121\n      jump\t// in\n    tag_236:\n        /* \"#utility.yul\":7255:7596   */\n      pop\n        /* \"#utility.yul\":7171:7596   */\n      swap4\n      swap3\n      pop\n      pop\n      pop\n      jump\t// out\n        /* \"#utility.yul\":7616:7956   */\n    tag_123:\n        /* \"#utility.yul\":7672:7677   */\n      0x00\n        /* \"#utility.yul\":7721:7724   */\n      dup3\n        /* \"#utility.yul\":7714:7718   */\n      0x1f\n        /* \"#utility.yul\":7706:7712   */\n      dup4\n        /* \"#utility.yul\":7702:7719   */\n      add\n        /* \"#utility.yul\":7698:7725   */\n      slt\n        /* \"#utility.yul\":7688:7810   */\n      tag_238\n      jumpi\n        /* \"#utility.yul\":7729:7808   */\n      tag_239\n      tag_118\n      jump\t// in\n    tag_239:\n        /* \"#utility.yul\":7688:7810   */\n    tag_238:\n        /* \"#utility.yul\":7846:7852   */\n      dup2\n        /* \"#utility.yul\":7833:7853   */\n      calldataload\n        /* \"#utility.yul\":7871:7950   */\n      tag_240\n        /* \"#utility.yul\":7946:7949   */\n      dup5\n        /* \"#utility.yul\":7938:7944   */\n      dup3\n        /* \"#utility.yul\":7931:7935   */\n      0x20\n        /* \"#utility.yul\":7923:7929   */\n      dup7\n        /* \"#utility.yul\":7919:7936   */\n      add\n        /* \"#utility.yul\":7871:7950   */\n      tag_122\n      jump\t// in\n    tag_240:\n        /* \"#utility.yul\":7862:7950   */\n      swap2\n      pop\n        /* \"#utility.yul\":7678:7956   */\n      pop\n        /* \"#utility.yul\":7616:7956   */\n      swap3\n      swap2\n      pop\n      pop\n      jump\t// out\n        /* \"#utility.yul\":7989:10044   */\n    tag_124:\n        /* \"#utility.yul\":8059:8064   */\n      0x00\n        /* \"#utility.yul\":8103:8109   */\n      0x0140\n        /* \"#utility.yul\":8091:8100   */\n      dup3\n        /* \"#utility.yul\":8086:8089   */\n      dup5\n        /* \"#utility.yul\":8082:8101   */\n      sub\n        /* \"#utility.yul\":8078:8110   */\n      slt\n        /* \"#utility.yul\":8075:8194   */\n      iszero\n      tag_242\n      jumpi\n        /* \"#utility.yul\":8113:8192   */\n      tag_243\n      tag_113\n      jump\t// in\n    tag_243:\n        /* \"#utility.yul\":8075:8194   */\n    tag_242:\n        /* \"#utility.yul\":8212:8235   */\n      tag_244\n        /* \"#utility.yul\":8228:8234   */\n      0x0140\n        /* \"#utility.yul\":8212:8235   */\n      tag_116\n      jump\t// in\n    tag_244:\n        /* \"#utility.yul\":8203:8235   */\n      swap1\n      pop\n        /* \"#utility.yul\":8292:8293   */\n      0x00\n        /* \"#utility.yul\":8332:8380   */\n      tag_245\n        /* \"#utility.yul\":8376:8379   */\n      dup5\n        /* \"#utility.yul\":8367:8373   */\n      dup3\n        /* \"#utility.yul\":8356:8365   */\n      dup6\n        /* \"#utility.yul\":8352:8374   */\n      add\n        /* \"#utility.yul\":8332:8380   */\n      tag_98\n      jump\t// in\n    tag_245:\n        /* \"#utility.yul\":8325:8329   */\n      0x00\n        /* \"#utility.yul\":8318:8323   */\n      dup4\n        /* \"#utility.yul\":8314:8330   */\n      add\n        /* \"#utility.yul\":8307:8381   */\n      mstore\n        /* \"#utility.yul\":8245:8392   */\n      pop\n        /* \"#utility.yul\":8479:8481   */\n      0x20\n        /* \"#utility.yul\":8468:8477   */\n      dup3\n        /* \"#utility.yul\":8464:8482   */\n      add\n        /* \"#utility.yul\":8451:8483   */\n      calldataload\n        /* \"#utility.yul\":8510:8528   */\n      0xffffffffffffffff\n        /* \"#utility.yul\":8502:8508   */\n      dup2\n        /* \"#utility.yul\":8499:8529   */\n      gt\n        /* \"#utility.yul\":8496:8613   */\n      iszero\n      tag_246\n      jumpi\n        /* \"#utility.yul\":8532:8611   */\n      tag_247\n      tag_117\n      jump\t// in\n    tag_247:\n        /* \"#utility.yul\":8496:8613   */\n    tag_246:\n        /* \"#utility.yul\":8652:8711   */\n      tag_248\n        /* \"#utility.yul\":8707:8710   */\n      dup5\n        /* \"#utility.yul\":8698:8704   */\n      dup3\n        /* \"#utility.yul\":8687:8696   */\n      dup6\n        /* \"#utility.yul\":8683:8705   */\n      add\n        /* \"#utility.yul\":8652:8711   */\n      tag_123\n      jump\t// in\n    tag_248:\n        /* \"#utility.yul\":8645:8649   */\n      0x20\n        /* \"#utility.yul\":8638:8643   */\n      dup4\n        /* \"#utility.yul\":8634:8650   */\n      add\n        /* \"#utility.yul\":8627:8712   */\n      mstore\n        /* \"#utility.yul\":8402:8723   */\n      pop\n        /* \"#utility.yul\":8783:8785   */\n      0x40\n        /* \"#utility.yul\":8824:8873   */\n      tag_249\n        /* \"#utility.yul\":8869:8872   */\n      dup5\n        /* \"#utility.yul\":8860:8866   */\n      dup3\n        /* \"#utility.yul\":8849:8858   */\n      dup6\n        /* \"#utility.yul\":8845:8867   */\n      add\n        /* \"#utility.yul\":8824:8873   */\n      tag_102\n      jump\t// in\n    tag_249:\n        /* \"#utility.yul\":8817:8821   */\n      0x40\n        /* \"#utility.yul\":8810:8815   */\n      dup4\n        /* \"#utility.yul\":8806:8822   */\n      add\n        /* \"#utility.yul\":8799:8874   */\n      mstore\n        /* \"#utility.yul\":8733:8885   */\n      pop\n        /* \"#utility.yul\":8945:8947   */\n      0x60\n        /* \"#utility.yul\":8986:9034   */\n      tag_250\n        /* \"#utility.yul\":9030:9033   */\n      dup5\n        /* \"#utility.yul\":9021:9027   */\n      dup3\n        /* \"#utility.yul\":9010:9019   */\n      dup6\n        /* \"#utility.yul\":9006:9028   */\n      add\n        /* \"#utility.yul\":8986:9034   */\n      tag_98\n      jump\t// in\n    tag_250:\n        /* \"#utility.yul\":8979:8983   */\n      0x60\n        /* \"#utility.yul\":8972:8977   */\n      dup4\n        /* \"#utility.yul\":8968:8984   */\n      add\n        /* \"#utility.yul\":8961:9035   */\n      mstore\n        /* \"#utility.yul\":8895:9046   */\n      pop\n        /* \"#utility.yul\":9113:9116   */\n      0x80\n        /* \"#utility.yul\":9155:9203   */\n      tag_251\n        /* \"#utility.yul\":9199:9202   */\n      dup5\n        /* \"#utility.yul\":9190:9196   */\n      dup3\n        /* \"#utility.yul\":9179:9188   */\n      dup6\n        /* \"#utility.yul\":9175:9197   */\n      add\n        /* \"#utility.yul\":9155:9203   */\n      tag_98\n      jump\t// in\n    tag_251:\n        /* \"#utility.yul\":9148:9152   */\n      0x80\n        /* \"#utility.yul\":9141:9146   */\n      dup4\n        /* \"#utility.yul\":9137:9153   */\n      add\n        /* \"#utility.yul\":9130:9204   */\n      mstore\n        /* \"#utility.yul\":9056:9215   */\n      pop\n        /* \"#utility.yul\":9277:9280   */\n      0xa0\n        /* \"#utility.yul\":9319:9367   */\n      tag_252\n        /* \"#utility.yul\":9363:9366   */\n      dup5\n        /* \"#utility.yul\":9354:9360   */\n      dup3\n        /* \"#utility.yul\":9343:9352   */\n      dup6\n        /* \"#utility.yul\":9339:9361   */\n      add\n        /* \"#utility.yul\":9319:9367   */\n      tag_98\n      jump\t// in\n    tag_252:\n        /* \"#utility.yul\":9312:9316   */\n      0xa0\n        /* \"#utility.yul\":9305:9310   */\n      dup4\n        /* \"#utility.yul\":9301:9317   */\n      add\n        /* \"#utility.yul\":9294:9368   */\n      mstore\n        /* \"#utility.yul\":9225:9379   */\n      pop\n        /* \"#utility.yul\":9441:9444   */\n      0xc0\n        /* \"#utility.yul\":9483:9531   */\n      tag_253\n        /* \"#utility.yul\":9527:9530   */\n      dup5\n        /* \"#utility.yul\":9518:9524   */\n      dup3\n        /* \"#utility.yul\":9507:9516   */\n      dup6\n        /* \"#utility.yul\":9503:9525   */\n      add\n        /* \"#utility.yul\":9483:9531   */\n      tag_98\n      jump\t// in\n    tag_253:\n        /* \"#utility.yul\":9476:9480   */\n      0xc0\n        /* \"#utility.yul\":9469:9474   */\n      dup4\n        /* \"#utility.yul\":9465:9481   */\n      add\n        /* \"#utility.yul\":9458:9532   */\n      mstore\n        /* \"#utility.yul\":9389:9543   */\n      pop\n        /* \"#utility.yul\":9606:9609   */\n      0xe0\n        /* \"#utility.yul\":9648:9696   */\n      tag_254\n        /* \"#utility.yul\":9692:9695   */\n      dup5\n        /* \"#utility.yul\":9683:9689   */\n      dup3\n        /* \"#utility.yul\":9672:9681   */\n      dup6\n        /* \"#utility.yul\":9668:9690   */\n      add\n        /* \"#utility.yul\":9648:9696   */\n      tag_98\n      jump\t// in\n    tag_254:\n        /* \"#utility.yul\":9641:9645   */\n      0xe0\n        /* \"#utility.yul\":9634:9639   */\n      dup4\n        /* \"#utility.yul\":9630:9646   */\n      add\n        /* \"#utility.yul\":9623:9697   */\n      mstore\n        /* \"#utility.yul\":9553:9708   */\n      pop\n        /* \"#utility.yul\":9769:9772   */\n      0x0100\n        /* \"#utility.yul\":9813:9861   */\n      tag_255\n        /* \"#utility.yul\":9857:9860   */\n      dup5\n        /* \"#utility.yul\":9848:9854   */\n      dup3\n        /* \"#utility.yul\":9837:9846   */\n      dup6\n        /* \"#utility.yul\":9833:9855   */\n      add\n        /* \"#utility.yul\":9813:9861   */\n      tag_98\n      jump\t// in\n    tag_255:\n        /* \"#utility.yul\":9804:9810   */\n      0x0100\n        /* \"#utility.yul\":9797:9802   */\n      dup4\n        /* \"#utility.yul\":9793:9811   */\n      add\n        /* \"#utility.yul\":9786:9862   */\n      mstore\n        /* \"#utility.yul\":9718:9873   */\n      pop\n        /* \"#utility.yul\":9933:9936   */\n      0x0120\n        /* \"#utility.yul\":9977:10025   */\n      tag_256\n        /* \"#utility.yul\":10021:10024   */\n      dup5\n        /* \"#utility.yul\":10012:10018   */\n      dup3\n        /* \"#utility.yul\":10001:10010   */\n      dup6\n        /* \"#utility.yul\":9997:10019   */\n      add\n        /* \"#utility.yul\":9977:10025   */\n      tag_98\n      jump\t// in\n    tag_256:\n        /* \"#utility.yul\":9968:9974   */\n      0x0120\n        /* \"#utility.yul\":9961:9966   */\n      dup4\n        /* \"#utility.yul\":9957:9975   */\n      add\n        /* \"#utility.yul\":9950:10026   */\n      mstore\n        /* \"#utility.yul\":9883:10037   */\n      pop\n        /* \"#utility.yul\":7989:10044   */\n      swap3\n      swap2\n      pop\n      pop\n      jump\t// out\n        /* \"#utility.yul\":10050:10726   */\n    tag_31:\n        /* \"#utility.yul\":10139:10145   */\n      0x00\n        /* \"#utility.yul\":10147:10153   */\n      dup1\n        /* \"#utility.yul\":10196:10198   */\n      0x40\n        /* \"#utility.yul\":10184:10193   */\n      dup4\n        /* \"#utility.yul\":10175:10182   */\n      dup6\n        /* \"#utility.yul\":10171:10194   */\n      sub\n        /* \"#utility.yul\":10167:10199   */\n      slt\n        /* \"#utility.yul\":10164:10283   */\n      iszero\n      tag_258\n      jumpi\n        /* \"#utility.yul\":10202:10281   */\n      tag_259\n      tag_94\n      jump\t// in\n    tag_259:\n        /* \"#utility.yul\":10164:10283   */\n    tag_258:\n        /* \"#utility.yul\":10322:10323   */\n      0x00\n        /* \"#utility.yul\":10347:10400   */\n      tag_260\n        /* \"#utility.yul\":10392:10399   */\n      dup6\n        /* \"#utility.yul\":10383:10389   */\n      dup3\n        /* \"#utility.yul\":10372:10381   */\n      dup7\n        /* \"#utility.yul\":10368:10390   */\n      add\n        /* \"#utility.yul\":10347:10400   */\n      tag_102\n      jump\t// in\n    tag_260:\n        /* \"#utility.yul\":10337:10400   */\n      swap3\n      pop\n        /* \"#utility.yul\":10293:10410   */\n      pop\n        /* \"#utility.yul\":10477:10479   */\n      0x20\n        /* \"#utility.yul\":10466:10475   */\n      dup4\n        /* \"#utility.yul\":10462:10480   */\n      add\n        /* \"#utility.yul\":10449:10481   */\n      calldataload\n        /* \"#utility.yul\":10508:10526   */\n      0xffffffffffffffff\n        /* \"#utility.yul\":10500:10506   */\n      dup2\n        /* \"#utility.yul\":10497:10527   */\n      gt\n        /* \"#utility.yul\":10494:10611   */\n      iszero\n      tag_261\n      jumpi\n        /* \"#utility.yul\":10530:10609   */\n      tag_262\n      tag_95\n      jump\t// in\n    tag_262:\n        /* \"#utility.yul\":10494:10611   */\n    tag_261:\n        /* \"#utility.yul\":10635:10709   */\n      tag_263\n        /* \"#utility.yul\":10701:10708   */\n      dup6\n        /* \"#utility.yul\":10692:10698   */\n      dup3\n        /* \"#utility.yul\":10681:10690   */\n      dup7\n        /* \"#utility.yul\":10677:10699   */\n      add\n        /* \"#utility.yul\":10635:10709   */\n      tag_124\n      jump\t// in\n    tag_263:\n        /* \"#utility.yul\":10625:10709   */\n      swap2\n      pop\n        /* \"#utility.yul\":10420:10719   */\n      pop\n        /* \"#utility.yul\":10050:10726   */\n      swap3\n      pop\n      swap3\n      swap1\n      pop\n      jump\t// out\n        /* \"#utility.yul\":10732:11241   */\n    tag_35:\n        /* \"#utility.yul\":10801:10807   */\n      0x00\n        /* \"#utility.yul\":10850:10852   */\n      0x20\n        /* \"#utility.yul\":10838:10847   */\n      dup3\n        /* \"#utility.yul\":10829:10836   */\n      dup5\n        /* \"#utility.yul\":10825:10848   */\n      sub\n        /* \"#utility.yul\":10821:10853   */\n      slt\n        /* \"#utility.yul\":10818:10937   */\n      iszero\n      tag_265\n      jumpi\n        /* \"#utility.yul\":10856:10935   */\n      tag_266\n      tag_94\n      jump\t// in\n    tag_266:\n        /* \"#utility.yul\":10818:10937   */\n    tag_265:\n        /* \"#utility.yul\":11004:11005   */\n      0x00\n        /* \"#utility.yul\":10993:11002   */\n      dup3\n        /* \"#utility.yul\":10989:11006   */\n      add\n        /* \"#utility.yul\":10976:11007   */\n      calldataload\n        /* \"#utility.yul\":11034:11052   */\n      0xffffffffffffffff\n        /* \"#utility.yul\":11026:11032   */\n      dup2\n        /* \"#utility.yul\":11023:11053   */\n      gt\n        /* \"#utility.yul\":11020:11137   */\n      iszero\n      tag_267\n      jumpi\n        /* \"#utility.yul\":11056:11135   */\n      tag_268\n      tag_95\n      jump\t// in\n    tag_268:\n        /* \"#utility.yul\":11020:11137   */\n    tag_267:\n        /* \"#utility.yul\":11161:11224   */\n      tag_269\n        /* \"#utility.yul\":11216:11223   */\n      dup5\n        /* \"#utility.yul\":11207:11213   */\n      dup3\n        /* \"#utility.yul\":11196:11205   */\n      dup6\n        /* \"#utility.yul\":11192:11214   */\n      add\n        /* \"#utility.yul\":11161:11224   */\n      tag_123\n      jump\t// in\n    tag_269:\n        /* \"#utility.yul\":11151:11224   */\n      swap2\n      pop\n        /* \"#utility.yul\":10947:11234   */\n      pop\n        /* \"#utility.yul\":10732:11241   */\n      swap3\n      swap2\n      pop\n      pop\n      jump\t// out\n        /* \"#utility.yul\":11247:11409   */\n    tag_125:\n        /* \"#utility.yul\":11387:11401   */\n      0x526163652069732066756c6c0000000000000000000000000000000000000000\n        /* \"#utility.yul\":11383:11384   */\n      0x00\n        /* \"#utility.yul\":11375:11381   */\n      dup3\n        /* \"#utility.yul\":11371:11385   */\n      add\n        /* \"#utility.yul\":11364:11402   */\n      mstore\n        /* \"#utility.yul\":11247:11409   */\n      pop\n      jump\t// out\n        /* \"#utility.yul\":11415:11781   */\n    tag_126:\n        /* \"#utility.yul\":11557:11560   */\n      0x00\n        /* \"#utility.yul\":11578:11645   */\n      tag_272\n        /* \"#utility.yul\":11642:11644   */\n      0x0c\n        /* \"#utility.yul\":11637:11640   */\n      dup4\n        /* \"#utility.yul\":11578:11645   */\n      tag_107\n      jump\t// in\n    tag_272:\n        /* \"#utility.yul\":11571:11645   */\n      swap2\n      pop\n        /* \"#utility.yul\":11654:11747   */\n      tag_273\n        /* \"#utility.yul\":11743:11746   */\n      dup3\n        /* \"#utility.yul\":11654:11747   */\n      tag_125\n      jump\t// in\n    tag_273:\n        /* \"#utility.yul\":11772:11774   */\n      0x20\n        /* \"#utility.yul\":11767:11770   */\n      dup3\n        /* \"#utility.yul\":11763:11775   */\n      add\n        /* \"#utility.yul\":11756:11775   */\n      swap1\n      pop\n        /* \"#utility.yul\":11415:11781   */\n      swap2\n      swap1\n      pop\n      jump\t// out\n        /* \"#utility.yul\":11787:12206   */\n    tag_43:\n        /* \"#utility.yul\":11953:11957   */\n      0x00\n        /* \"#utility.yul\":11991:11993   */\n      0x20\n        /* \"#utility.yul\":11980:11989   */\n      dup3\n        /* \"#utility.yul\":11976:11994   */\n      add\n        /* \"#utility.yul\":11968:11994   */\n      swap1\n      pop\n        /* \"#utility.yul\":12040:12049   */\n      dup2\n        /* \"#utility.yul\":12034:12038   */\n      dup2\n        /* \"#utility.yul\":12030:12050   */\n      sub\n        /* \"#utility.yul\":12026:12027   */\n      0x00\n        /* \"#utility.yul\":12015:12024   */\n      dup4\n        /* \"#utility.yul\":12011:12028   */\n      add\n        /* \"#utility.yul\":12004:12051   */\n      mstore\n        /* \"#utility.yul\":12068:12199   */\n      tag_275\n        /* \"#utility.yul\":12194:12198   */\n      dup2\n        /* \"#utility.yul\":12068:12199   */\n      tag_126\n      jump\t// in\n    tag_275:\n        /* \"#utility.yul\":12060:12199   */\n      swap1\n      pop\n        /* \"#utility.yul\":11787:12206   */\n      swap2\n      swap1\n      pop\n      jump\t// out\n        /* \"#utility.yul\":12212:12383   */\n    tag_127:\n        /* \"#utility.yul\":12352:12375   */\n      0x486f72736520616c72656164792070726573656e740000000000000000000000\n        /* \"#utility.yul\":12348:12349   */\n      0x00\n        /* \"#utility.yul\":12340:12346   */\n      dup3\n        /* \"#utility.yul\":12336:12350   */\n      add\n        /* \"#utility.yul\":12329:12376   */\n      mstore\n        /* \"#utility.yul\":12212:12383   */\n      pop\n      jump\t// out\n        /* \"#utility.yul\":12389:12755   */\n    tag_128:\n        /* \"#utility.yul\":12531:12534   */\n      0x00\n        /* \"#utility.yul\":12552:12619   */\n      tag_278\n        /* \"#utility.yul\":12616:12618   */\n      0x15\n        /* \"#utility.yul\":12611:12614   */\n      dup4\n        /* \"#utility.yul\":12552:12619   */\n      tag_107\n      jump\t// in\n    tag_278:\n        /* \"#utility.yul\":12545:12619   */\n      swap2\n      pop\n        /* \"#utility.yul\":12628:12721   */\n      tag_279\n        /* \"#utility.yul\":12717:12720   */\n      dup3\n        /* \"#utility.yul\":12628:12721   */\n      tag_127\n      jump\t// in\n    tag_279:\n        /* \"#utility.yul\":12746:12748   */\n      0x20\n        /* \"#utility.yul\":12741:12744   */\n      dup3\n        /* \"#utility.yul\":12737:12749   */\n      add\n        /* \"#utility.yul\":12730:12749   */\n      swap1\n      pop\n        /* \"#utility.yul\":12389:12755   */\n      swap2\n      swap1\n      pop\n      jump\t// out\n        /* \"#utility.yul\":12761:13180   */\n    tag_50:\n        /* \"#utility.yul\":12927:12931   */\n      0x00\n        /* \"#utility.yul\":12965:12967   */\n      0x20\n        /* \"#utility.yul\":12954:12963   */\n      dup3\n        /* \"#utility.yul\":12950:12968   */\n      add\n        /* \"#utility.yul\":12942:12968   */\n      swap1\n      pop\n        /* \"#utility.yul\":13014:13023   */\n      dup2\n        /* \"#utility.yul\":13008:13012   */\n      dup2\n        /* \"#utility.yul\":13004:13024   */\n      sub\n        /* \"#utility.yul\":13000:13001   */\n      0x00\n        /* \"#utility.yul\":12989:12998   */\n      dup4\n        /* \"#utility.yul\":12985:13002   */\n      add\n        /* \"#utility.yul\":12978:13025   */\n      mstore\n        /* \"#utility.yul\":13042:13173   */\n      tag_281\n        /* \"#utility.yul\":13168:13172   */\n      dup2\n        /* \"#utility.yul\":13042:13173   */\n      tag_128\n      jump\t// in\n    tag_281:\n        /* \"#utility.yul\":13034:13173   */\n      swap1\n      pop\n        /* \"#utility.yul\":12761:13180   */\n      swap2\n      swap1\n      pop\n      jump\t// out\n        /* \"#utility.yul\":13186:13357   */\n    tag_129:\n        /* \"#utility.yul\":13326:13349   */\n      0x486f727365206e6f7420696e2074686520726163650000000000000000000000\n        /* \"#utility.yul\":13322:13323   */\n      0x00\n        /* \"#utility.yul\":13314:13320   */\n      dup3\n        /* \"#utility.yul\":13310:13324   */\n      add\n        /* \"#utility.yul\":13303:13350   */\n      mstore\n        /* \"#utility.yul\":13186:13357   */\n      pop\n      jump\t// out\n        /* \"#utility.yul\":13363:13729   */\n    tag_130:\n        /* \"#utility.yul\":13505:13508   */\n      0x00\n        /* \"#utility.yul\":13526:13593   */\n      tag_284\n        /* \"#utility.yul\":13590:13592   */\n      0x15\n        /* \"#utility.yul\":13585:13588   */\n      dup4\n        /* \"#utility.yul\":13526:13593   */\n      tag_107\n      jump\t// in\n    tag_284:\n        /* \"#utility.yul\":13519:13593   */\n      swap2\n      pop\n        /* \"#utility.yul\":13602:13695   */\n      tag_285\n        /* \"#utility.yul\":13691:13694   */\n      dup3\n        /* \"#utility.yul\":13602:13695   */\n      tag_129\n      jump\t// in\n    tag_285:\n        /* \"#utility.yul\":13720:13722   */\n      0x20\n        /* \"#utility.yul\":13715:13718   */\n      dup3\n        /* \"#utility.yul\":13711:13723   */\n      add\n        /* \"#utility.yul\":13704:13723   */\n      swap1\n      pop\n        /* \"#utility.yul\":13363:13729   */\n      swap2\n      swap1\n      pop\n      jump\t// out\n        /* \"#utility.yul\":13735:14154   */\n    tag_58:\n        /* \"#utility.yul\":13901:13905   */\n      0x00\n        /* \"#utility.yul\":13939:13941   */\n      0x20\n        /* \"#utility.yul\":13928:13937   */\n      dup3\n        /* \"#utility.yul\":13924:13942   */\n      add\n        /* \"#utility.yul\":13916:13942   */\n      swap1\n      pop\n        /* \"#utility.yul\":13988:13997   */\n      dup2\n        /* \"#utility.yul\":13982:13986   */\n      dup2\n        /* \"#utility.yul\":13978:13998   */\n      sub\n        /* \"#utility.yul\":13974:13975   */\n      0x00\n        /* \"#utility.yul\":13963:13972   */\n      dup4\n        /* \"#utility.yul\":13959:13976   */\n      add\n        /* \"#utility.yul\":13952:13999   */\n      mstore\n        /* \"#utility.yul\":14016:14147   */\n      tag_287\n        /* \"#utility.yul\":14142:14146   */\n      dup2\n        /* \"#utility.yul\":14016:14147   */\n      tag_130\n      jump\t// in\n    tag_287:\n        /* \"#utility.yul\":14008:14147   */\n      swap1\n      pop\n        /* \"#utility.yul\":13735:14154   */\n      swap2\n      swap1\n      pop\n      jump\t// out\n        /* \"#utility.yul\":14160:14340   */\n    tag_131:\n        /* \"#utility.yul\":14208:14285   */\n      0x4e487b7100000000000000000000000000000000000000000000000000000000\n        /* \"#utility.yul\":14205:14206   */\n      0x00\n        /* \"#utility.yul\":14198:14286   */\n      mstore\n        /* \"#utility.yul\":14305:14309   */\n      0x22\n        /* \"#utility.yul\":14302:14303   */\n      0x04\n        /* \"#utility.yul\":14295:14310   */\n      mstore\n        /* \"#utility.yul\":14329:14333   */\n      0x24\n        /* \"#utility.yul\":14326:14327   */\n      0x00\n        /* \"#utility.yul\":14319:14334   */\n      revert\n        /* \"#utility.yul\":14346:14666   */\n    tag_61:\n        /* \"#utility.yul\":14390:14396   */\n      0x00\n        /* \"#utility.yul\":14427:14428   */\n      0x02\n        /* \"#utility.yul\":14421:14425   */\n      dup3\n        /* \"#utility.yul\":14417:14429   */\n      div\n        /* \"#utility.yul\":14407:14429   */\n      swap1\n      pop\n        /* \"#utility.yul\":14474:14475   */\n      0x01\n        /* \"#utility.yul\":14468:14472   */\n      dup3\n        /* \"#utility.yul\":14464:14476   */\n      and\n        /* \"#utility.yul\":14495:14513   */\n      dup1\n        /* \"#utility.yul\":14485:14566   */\n      tag_290\n      jumpi\n        /* \"#utility.yul\":14551:14555   */\n      0x7f\n        /* \"#utility.yul\":14543:14549   */\n      dup3\n        /* \"#utility.yul\":14539:14556   */\n      and\n        /* \"#utility.yul\":14529:14556   */\n      swap2\n      pop\n        /* \"#utility.yul\":14485:14566   */\n    tag_290:\n        /* \"#utility.yul\":14613:14615   */\n      0x20\n        /* \"#utility.yul\":14605:14611   */\n      dup3\n        /* \"#utility.yul\":14602:14616   */\n      lt\n        /* \"#utility.yul\":14582:14600   */\n      dup2\n        /* \"#utility.yul\":14579:14617   */\n      sub\n        /* \"#utility.yul\":14576:14660   */\n      tag_291\n      jumpi\n        /* \"#utility.yul\":14632:14650   */\n      tag_292\n      tag_131\n      jump\t// in\n    tag_292:\n        /* \"#utility.yul\":14576:14660   */\n    tag_291:\n        /* \"#utility.yul\":14397:14666   */\n      pop\n        /* \"#utility.yul\":14346:14666   */\n      swap2\n      swap1\n      pop\n      jump\t// out\n        /* \"#utility.yul\":14672:14839   */\n    tag_132:\n        /* \"#utility.yul\":14812:14831   */\n      0x556e617070726f7665642063616c6c6572000000000000000000000000000000\n        /* \"#utility.yul\":14808:14809   */\n      0x00\n        /* \"#utility.yul\":14800:14806   */\n      dup3\n        /* \"#utility.yul\":14796:14810   */\n      add\n        /* \"#utility.yul\":14789:14832   */\n      mstore\n        /* \"#utility.yul\":14672:14839   */\n      pop\n      jump\t// out\n        /* \"#utility.yul\":14845:15211   */\n    tag_133:\n        /* \"#utility.yul\":14987:14990   */\n      0x00\n        /* \"#utility.yul\":15008:15075   */\n      tag_295\n        /* \"#utility.yul\":15072:15074   */\n      0x11\n        /* \"#utility.yul\":15067:15070   */\n      dup4\n        /* \"#utility.yul\":15008:15075   */\n      tag_107\n      jump\t// in\n    tag_295:\n        /* \"#utility.yul\":15001:15075   */\n      swap2\n      pop\n        /* \"#utility.yul\":15084:15177   */\n      tag_296\n        /* \"#utility.yul\":15173:15176   */\n      dup3\n        /* \"#utility.yul\":15084:15177   */\n      tag_132\n      jump\t// in\n    tag_296:\n        /* \"#utility.yul\":15202:15204   */\n      0x20\n        /* \"#utility.yul\":15197:15200   */\n      dup3\n        /* \"#utility.yul\":15193:15205   */\n      add\n        /* \"#utility.yul\":15186:15205   */\n      swap1\n      pop\n        /* \"#utility.yul\":14845:15211   */\n      swap2\n      swap1\n      pop\n      jump\t// out\n        /* \"#utility.yul\":15217:15636   */\n    tag_74:\n        /* \"#utility.yul\":15383:15387   */\n      0x00\n        /* \"#utility.yul\":15421:15423   */\n      0x20\n        /* \"#utility.yul\":15410:15419   */\n      dup3\n        /* \"#utility.yul\":15406:15424   */\n      add\n        /* \"#utility.yul\":15398:15424   */\n      swap1\n      pop\n        /* \"#utility.yul\":15470:15479   */\n      dup2\n        /* \"#utility.yul\":15464:15468   */\n      dup2\n        /* \"#utility.yul\":15460:15480   */\n      sub\n        /* \"#utility.yul\":15456:15457   */\n      0x00\n        /* \"#utility.yul\":15445:15454   */\n      dup4\n        /* \"#utility.yul\":15441:15458   */\n      add\n        /* \"#utility.yul\":15434:15481   */\n      mstore\n        /* \"#utility.yul\":15498:15629   */\n      tag_298\n        /* \"#utility.yul\":15624:15628   */\n      dup2\n        /* \"#utility.yul\":15498:15629   */\n      tag_133\n      jump\t// in\n    tag_298:\n        /* \"#utility.yul\":15490:15629   */\n      swap1\n      pop\n        /* \"#utility.yul\":15217:15636   */\n      swap2\n      swap1\n      pop\n      jump\t// out\n        /* \"#utility.yul\":15642:15822   */\n    tag_134:\n        /* \"#utility.yul\":15690:15767   */\n      0x4e487b7100000000000000000000000000000000000000000000000000000000\n        /* \"#utility.yul\":15687:15688   */\n      0x00\n        /* \"#utility.yul\":15680:15768   */\n      mstore\n        /* \"#utility.yul\":15787:15791   */\n      0x11\n        /* \"#utility.yul\":15784:15785   */\n      0x04\n        /* \"#utility.yul\":15777:15792   */\n      mstore\n        /* \"#utility.yul\":15811:15815   */\n      0x24\n        /* \"#utility.yul\":15808:15809   */\n      0x00\n        /* \"#utility.yul\":15801:15816   */\n      revert\n        /* \"#utility.yul\":15828:16059   */\n    tag_76:\n        /* \"#utility.yul\":15866:15869   */\n      0x00\n        /* \"#utility.yul\":15889:15912   */\n      tag_301\n        /* \"#utility.yul\":15906:15911   */\n      dup3\n        /* \"#utility.yul\":15889:15912   */\n      tag_96\n      jump\t// in\n    tag_301:\n        /* \"#utility.yul\":15880:15912   */\n      swap2\n      pop\n        /* \"#utility.yul\":15934:16000   */\n      0x7fffffffffffffffffffffffffffffffffffffffffffffffffffffffffffffff\n        /* \"#utility.yul\":15927:15932   */\n      dup3\n        /* \"#utility.yul\":15924:16001   */\n      sub\n        /* \"#utility.yul\":15921:16024   */\n      tag_302\n      jumpi\n        /* \"#utility.yul\":16004:16022   */\n      tag_303\n      tag_134\n      jump\t// in\n    tag_303:\n        /* \"#utility.yul\":15921:16024   */\n    tag_302:\n        /* \"#utility.yul\":16051:16052   */\n      0x01\n        /* \"#utility.yul\":16044:16049   */\n      dup3\n        /* \"#utility.yul\":16040:16053   */\n      add\n        /* \"#utility.yul\":16033:16053   */\n      swap1\n      pop\n        /* \"#utility.yul\":15828:16059   */\n      swap2\n      swap1\n      pop\n      jump\t// out\n        /* \"#utility.yul\":16065:16206   */\n    tag_135:\n        /* \"#utility.yul\":16114:16118   */\n      0x00\n        /* \"#utility.yul\":16137:16140   */\n      dup2\n        /* \"#utility.yul\":16129:16140   */\n      swap1\n      pop\n        /* \"#utility.yul\":16160:16163   */\n      dup2\n        /* \"#utility.yul\":16157:16158   */\n      0x00\n        /* \"#utility.yul\":16150:16164   */\n      mstore\n        /* \"#utility.yul\":16194:16198   */\n      0x20\n        /* \"#utility.yul\":16191:16192   */\n      0x00\n        /* \"#utility.yul\":16181:16199   */\n      keccak256\n        /* \"#utility.yul\":16173:16199   */\n      swap1\n      pop\n        /* \"#utility.yul\":16065:16206   */\n      swap2\n      swap1\n      pop\n      jump\t// out\n        /* \"#utility.yul\":16212:16305   */\n    tag_136:\n        /* \"#utility.yul\":16249:16255   */\n      0x00\n        /* \"#utility.yul\":16296:16298   */\n      0x20\n        /* \"#utility.yul\":16291:16293   */\n      0x1f\n        /* \"#utility.yul\":16284:16289   */\n      dup4\n        /* \"#utility.yul\":16280:16294   */\n      add\n        /* \"#utility.yul\":16276:16299   */\n      div\n        /* \"#utility.yul\":16266:16299   */\n      swap1\n      pop\n        /* \"#utility.yul\":16212:16305   */\n      swap2\n      swap1\n      pop\n      jump\t// out\n        /* \"#utility.yul\":16311:16418   */\n    tag_137:\n        /* \"#utility.yul\":16355:16363   */\n      0x00\n        /* \"#utility.yul\":16405:16410   */\n      dup3\n        /* \"#utility.yul\":16399:16403   */\n      dup3\n        /* \"#utility.yul\":16395:16411   */\n      shl\n        /* \"#utility.yul\":16374:16411   */\n      swap1\n      pop\n        /* \"#utility.yul\":16311:16418   */\n      swap3\n      swap2\n      pop\n      pop\n      jump\t// out\n        /* \"#utility.yul\":16424:16817   */\n    tag_138:\n        /* \"#utility.yul\":16493:16499   */\n      0x00\n        /* \"#utility.yul\":16543:16544   */\n      0x08\n        /* \"#utility.yul\":16531:16541   */\n      dup4\n        /* \"#utility.yul\":16527:16545   */\n      mul\n        /* \"#utility.yul\":16566:16663   */\n      tag_308\n        /* \"#utility.yul\":16596:16662   */\n      0xffffffffffffffffffffffffffffffffffffffffffffffffffffffffffffffff\n        /* \"#utility.yul\":16585:16594   */\n      dup3\n        /* \"#utility.yul\":16566:16663   */\n      tag_137\n      jump\t// in\n    tag_308:\n        /* \"#utility.yul\":16684:16723   */\n      tag_309\n        /* \"#utility.yul\":16714:16722   */\n      dup7\n        /* \"#utility.yul\":16703:16712   */\n      dup4\n        /* \"#utility.yul\":16684:16723   */\n      tag_137\n      jump\t// in\n    tag_309:\n        /* \"#utility.yul\":16672:16723   */\n      swap6\n      pop\n        /* \"#utility.yul\":16756:16760   */\n      dup1\n        /* \"#utility.yul\":16752:16761   */\n      not\n        /* \"#utility.yul\":16745:16750   */\n      dup5\n        /* \"#utility.yul\":16741:16762   */\n      and\n        /* \"#utility.yul\":16732:16762   */\n      swap4\n      pop\n        /* \"#utility.yul\":16805:16809   */\n      dup1\n        /* \"#utility.yul\":16795:16803   */\n      dup7\n        /* \"#utility.yul\":16791:16810   */\n      and\n        /* \"#utility.yul\":16784:16789   */\n      dup5\n        /* \"#utility.yul\":16781:16811   */\n      or\n        /* \"#utility.yul\":16771:16811   */\n      swap3\n      pop\n        /* \"#utility.yul\":16500:16817   */\n      pop\n      pop\n        /* \"#utility.yul\":16424:16817   */\n      swap4\n      swap3\n      pop\n      pop\n      pop\n      jump\t// out\n        /* \"#utility.yul\":16823:16883   */\n    tag_139:\n        /* \"#utility.yul\":16851:16854   */\n      0x00\n        /* \"#utility.yul\":16872:16877   */\n      dup2\n        /* \"#utility.yul\":16865:16877   */\n      swap1\n      pop\n        /* \"#utility.yul\":16823:16883   */\n      swap2\n      swap1\n      pop\n      jump\t// out\n        /* \"#utility.yul\":16889:17031   */\n    tag_140:\n        /* \"#utility.yul\":16939:16948   */\n      0x00\n        /* \"#utility.yul\":16972:17025   */\n      tag_312\n        /* \"#utility.yul\":16990:17024   */\n      tag_313\n        /* \"#utility.yul\":16999:17023   */\n      tag_314\n        /* \"#utility.yul\":17017:17022   */\n      dup5\n        /* \"#utility.yul\":16999:17023   */\n      tag_103\n      jump\t// in\n    tag_314:\n        /* \"#utility.yul\":16990:17024   */\n      tag_139\n      jump\t// in\n    tag_313:\n        /* \"#utility.yul\":16972:17025   */\n      tag_103\n      jump\t// in\n    tag_312:\n        /* \"#utility.yul\":16959:17025   */\n      swap1\n      pop\n        /* \"#utility.yul\":16889:17031   */\n      swap2\n      swap1\n      pop\n      jump\t// out\n        /* \"#utility.yul\":17037:17112   */\n    tag_141:\n        /* \"#utility.yul\":17080:17083   */\n      0x00\n        /* \"#utility.yul\":17101:17106   */\n      dup2\n        /* \"#utility.yul\":17094:17106   */\n      swap1\n      pop\n        /* \"#utility.yul\":17037:17112   */\n      swap2\n      swap1\n      pop\n      jump\t// out\n        /* \"#utility.yul\":17118:17387   */\n    tag_142:\n        /* \"#utility.yul\":17228:17267   */\n      tag_317\n        /* \"#utility.yul\":17259:17266   */\n      dup4\n        /* \"#utility.yul\":17228:17267   */\n      tag_140\n      jump\t// in\n    tag_317:\n        /* \"#utility.yul\":17289:17380   */\n      tag_318\n        /* \"#utility.yul\":17338:17379   */\n      tag_319\n        /* \"#utility.yul\":17362:17378   */\n      dup3\n        /* \"#utility.yul\":17338:17379   */\n      tag_141\n      jump\t// in\n    tag_319:\n        /* \"#utility.yul\":17330:17336   */\n      dup5\n        /* \"#utility.yul\":17323:17327   */\n      dup5\n        /* \"#utility.yul\":17317:17328   */\n      sload\n        /* \"#utility.yul\":17289:17380   */\n      tag_138\n      jump\t// in\n    tag_318:\n        /* \"#utility.yul\":17283:17287   */\n      dup3\n        /* \"#utility.yul\":17276:17381   */\n      sstore\n        /* \"#utility.yul\":17194:17387   */\n      pop\n        /* \"#utility.yul\":17118:17387   */\n      pop\n      pop\n      pop\n      jump\t// out\n        /* \"#utility.yul\":17393:17466   */\n    tag_143:\n        /* \"#utility.yul\":17438:17441   */\n      0x00\n        /* \"#utility.yul\":17393:17466   */\n      swap1\n      jump\t// out\n        /* \"#utility.yul\":17472:17661   */\n    tag_144:\n        /* \"#utility.yul\":17549:17581   */\n      tag_322\n      tag_143\n      jump\t// in\n    tag_322:\n        /* \"#utility.yul\":17590:17655   */\n      tag_323\n        /* \"#utility.yul\":17648:17654   */\n      dup2\n        /* \"#utility.yul\":17640:17646   */\n      dup5\n        /* \"#utility.yul\":17634:17638   */\n      dup5\n        /* \"#utility.yul\":17590:17655   */\n      tag_142\n      jump\t// in\n    tag_323:\n        /* \"#utility.yul\":17525:17661   */\n      pop\n        /* \"#utility.yul\":17472:17661   */\n      pop\n      pop\n      jump\t// out\n        /* \"#utility.yul\":17667:17853   */\n    tag_145:\n        /* \"#utility.yul\":17727:17847   */\n    tag_325:\n        /* \"#utility.yul\":17744:17747   */\n      dup2\n        /* \"#utility.yul\":17737:17742   */\n      dup2\n        /* \"#utility.yul\":17734:17748   */\n      lt\n        /* \"#utility.yul\":17727:17847   */\n      iszero\n      tag_327\n      jumpi\n        /* \"#utility.yul\":17798:17837   */\n      tag_328\n        /* \"#utility.yul\":17835:17836   */\n      0x00\n        /* \"#utility.yul\":17828:17833   */\n      dup3\n        /* \"#utility.yul\":17798:17837   */\n      tag_144\n      jump\t// in\n    tag_328:\n        /* \"#utility.yul\":17771:17772   */\n      0x01\n        /* \"#utility.yul\":17764:17769   */\n      dup2\n        /* \"#utility.yul\":17760:17773   */\n      add\n        /* \"#utility.yul\":17751:17773   */\n      swap1\n      pop\n        /* \"#utility.yul\":17727:17847   */\n      jump(tag_325)\n    tag_327:\n        /* \"#utility.yul\":17667:17853   */\n      pop\n      pop\n      jump\t// out\n        /* \"#utility.yul\":17859:18402   */\n    tag_146:\n        /* \"#utility.yul\":17960:17962   */\n      0x1f\n        /* \"#utility.yul\":17955:17958   */\n      dup3\n        /* \"#utility.yul\":17952:17963   */\n      gt\n        /* \"#utility.yul\":17949:18395   */\n      iszero\n      tag_330\n      jumpi\n        /* \"#utility.yul\":17994:18032   */\n      tag_331\n        /* \"#utility.yul\":18026:18031   */\n      dup2\n        /* \"#utility.yul\":17994:18032   */\n      tag_135\n      jump\t// in\n    tag_331:\n        /* \"#utility.yul\":18078:18107   */\n      tag_332\n        /* \"#utility.yul\":18096:18106   */\n      dup5\n        /* \"#utility.yul\":18078:18107   */\n      tag_136\n      jump\t// in\n    tag_332:\n        /* \"#utility.yul\":18068:18076   */\n      dup2\n        /* \"#utility.yul\":18064:18108   */\n      add\n        /* \"#utility.yul\":18261:18263   */\n      0x20\n        /* \"#utility.yul\":18249:18259   */\n      dup6\n        /* \"#utility.yul\":18246:18264   */\n      lt\n        /* \"#utility.yul\":18243:18292   */\n      iszero\n      tag_333\n      jumpi\n        /* \"#utility.yul\":18282:18290   */\n      dup2\n        /* \"#utility.yul\":18267:18290   */\n      swap1\n      pop\n        /* \"#utility.yul\":18243:18292   */\n    tag_333:\n        /* \"#utility.yul\":18305:18385   */\n      tag_334\n        /* \"#utility.yul\":18361:18383   */\n      tag_335\n        /* \"#utility.yul\":18379:18382   */\n      dup6\n        /* \"#utility.yul\":18361:18383   */\n      tag_136\n      jump\t// in\n    tag_335:\n        /* \"#utility.yul\":18351:18359   */\n      dup4\n        /* \"#utility.yul\":18347:18384   */\n      add\n        /* \"#utility.yul\":18334:18345   */\n      dup3\n        /* \"#utility.yul\":18305:18385   */\n      tag_145\n      jump\t// in\n    tag_334:\n        /* \"#utility.yul\":17964:18395   */\n      pop\n      pop\n        /* \"#utility.yul\":17949:18395   */\n    tag_330:\n        /* \"#utility.yul\":17859:18402   */\n      pop\n      pop\n      pop\n      jump\t// out\n        /* \"#utility.yul\":18408:18525   */\n    tag_147:\n        /* \"#utility.yul\":18462:18470   */\n      0x00\n        /* \"#utility.yul\":18512:18517   */\n      dup3\n        /* \"#utility.yul\":18506:18510   */\n      dup3\n        /* \"#utility.yul\":18502:18518   */\n      shr\n        /* \"#utility.yul\":18481:18518   */\n      swap1\n      pop\n        /* \"#utility.yul\":18408:18525   */\n      swap3\n      swap2\n      pop\n      pop\n      jump\t// out\n        /* \"#utility.yul\":18531:18700   */\n    tag_148:\n        /* \"#utility.yul\":18575:18581   */\n      0x00\n        /* \"#utility.yul\":18608:18659   */\n      tag_338\n        /* \"#utility.yul\":18656:18657   */\n      0x00\n        /* \"#utility.yul\":18652:18658   */\n      not\n        /* \"#utility.yul\":18644:18649   */\n      dup5\n        /* \"#utility.yul\":18641:18642   */\n      0x08\n        /* \"#utility.yul\":18637:18650   */\n      mul\n        /* \"#utility.yul\":18608:18659   */\n      tag_147\n      jump\t// in\n    tag_338:\n        /* \"#utility.yul\":18604:18660   */\n      not\n        /* \"#utility.yul\":18689:18693   */\n      dup1\n        /* \"#utility.yul\":18683:18687   */\n      dup4\n        /* \"#utility.yul\":18679:18694   */\n      and\n        /* \"#utility.yul\":18669:18694   */\n      swap2\n      pop\n        /* \"#utility.yul\":18582:18700   */\n      pop\n        /* \"#utility.yul\":18531:18700   */\n      swap3\n      swap2\n      pop\n      pop\n      jump\t// out\n        /* \"#utility.yul\":18705:19000   */\n    tag_149:\n        /* \"#utility.yul\":18781:18785   */\n      0x00\n        /* \"#utility.yul\":18927:18956   */\n      tag_340\n        /* \"#utility.yul\":18952:18955   */\n      dup4\n        /* \"#utility.yul\":18946:18950   */\n      dup4\n        /* \"#utility.yul\":18927:18956   */\n      tag_148\n      jump\t// in\n    tag_340:\n        /* \"#utility.yul\":18919:18956   */\n      swap2\n      pop\n        /* \"#utility.yul\":18989:18992   */\n      dup3\n        /* \"#utility.yul\":18986:18987   */\n      0x02\n        /* \"#utility.yul\":18982:18993   */\n      mul\n        /* \"#utility.yul\":18976:18980   */\n      dup3\n        /* \"#utility.yul\":18973:18994   */\n      or\n        /* \"#utility.yul\":18965:18994   */\n      swap1\n      pop\n        /* \"#utility.yul\":18705:19000   */\n      swap3\n      swap2\n      pop\n      pop\n      jump\t// out\n        /* \"#utility.yul\":19005:20400   */\n    tag_78:\n        /* \"#utility.yul\":19122:19159   */\n      tag_342\n        /* \"#utility.yul\":19155:19158   */\n      dup3\n        /* \"#utility.yul\":19122:19159   */\n      tag_106\n      jump\t// in\n    tag_342:\n        /* \"#utility.yul\":19224:19242   */\n      0xffffffffffffffff\n        /* \"#utility.yul\":19216:19222   */\n      dup2\n        /* \"#utility.yul\":19213:19243   */\n      gt\n        /* \"#utility.yul\":19210:19266   */\n      iszero\n      tag_343\n      jumpi\n        /* \"#utility.yul\":19246:19264   */\n      tag_344\n      tag_114\n      jump\t// in\n    tag_344:\n        /* \"#utility.yul\":19210:19266   */\n    tag_343:\n        /* \"#utility.yul\":19290:19328   */\n      tag_345\n        /* \"#utility.yul\":19322:19326   */\n      dup3\n        /* \"#utility.yul\":19316:19327   */\n      sload\n        /* \"#utility.yul\":19290:19328   */\n      tag_61\n      jump\t// in\n    tag_345:\n        /* \"#utility.yul\":19375:19442   */\n      tag_346\n        /* \"#utility.yul\":19435:19441   */\n      dup3\n        /* \"#utility.yul\":19427:19433   */\n      dup3\n        /* \"#utility.yul\":19421:19425   */\n      dup6\n        /* \"#utility.yul\":19375:19442   */\n      tag_146\n      jump\t// in\n    tag_346:\n        /* \"#utility.yul\":19469:19470   */\n      0x00\n        /* \"#utility.yul\":19493:19497   */\n      0x20\n        /* \"#utility.yul\":19480:19497   */\n      swap1\n      pop\n        /* \"#utility.yul\":19525:19527   */\n      0x1f\n        /* \"#utility.yul\":19517:19523   */\n      dup4\n        /* \"#utility.yul\":19514:19528   */\n      gt\n        /* \"#utility.yul\":19542:19543   */\n      0x01\n        /* \"#utility.yul\":19537:20155   */\n      dup2\n      eq\n      tag_348\n      jumpi\n        /* \"#utility.yul\":20199:20200   */\n      0x00\n        /* \"#utility.yul\":20216:20222   */\n      dup5\n        /* \"#utility.yul\":20213:20290   */\n      iszero\n      tag_349\n      jumpi\n        /* \"#utility.yul\":20265:20274   */\n      dup3\n        /* \"#utility.yul\":20260:20263   */\n      dup8\n        /* \"#utility.yul\":20256:20275   */\n      add\n        /* \"#utility.yul\":20250:20276   */\n      mload\n        /* \"#utility.yul\":20241:20276   */\n      swap1\n      pop\n        /* \"#utility.yul\":20213:20290   */\n    tag_349:\n        /* \"#utility.yul\":20316:20383   */\n      tag_350\n        /* \"#utility.yul\":20376:20382   */\n      dup6\n        /* \"#utility.yul\":20369:20374   */\n      dup3\n        /* \"#utility.yul\":20316:20383   */\n      tag_149\n      jump\t// in\n    tag_350:\n        /* \"#utility.yul\":20310:20314   */\n      dup7\n        /* \"#utility.yul\":20303:20384   */\n      sstore\n        /* \"#utility.yul\":20172:20394   */\n      pop\n        /* \"#utility.yul\":19507:20394   */\n      jump(tag_347)\n        /* \"#utility.yul\":19537:20155   */\n    tag_348:\n        /* \"#utility.yul\":19589:19593   */\n      0x1f\n        /* \"#utility.yul\":19585:19594   */\n      not\n        /* \"#utility.yul\":19577:19583   */\n      dup5\n        /* \"#utility.yul\":19573:19595   */\n      and\n        /* \"#utility.yul\":19623:19660   */\n      tag_351\n        /* \"#utility.yul\":19655:19659   */\n      dup7\n        /* \"#utility.yul\":19623:19660   */\n      tag_135\n      jump\t// in\n    tag_351:\n        /* \"#utility.yul\":19682:19683   */\n      0x00\n        /* \"#utility.yul\":19696:19904   */\n    tag_352:\n        /* \"#utility.yul\":19710:19717   */\n      dup3\n        /* \"#utility.yul\":19707:19708   */\n      dup2\n        /* \"#utility.yul\":19704:19718   */\n      lt\n        /* \"#utility.yul\":19696:19904   */\n      iszero\n      tag_354\n      jumpi\n        /* \"#utility.yul\":19789:19798   */\n      dup5\n        /* \"#utility.yul\":19784:19787   */\n      dup10\n        /* \"#utility.yul\":19780:19799   */\n      add\n        /* \"#utility.yul\":19774:19800   */\n      mload\n        /* \"#utility.yul\":19766:19772   */\n      dup3\n        /* \"#utility.yul\":19759:19801   */\n      sstore\n        /* \"#utility.yul\":19840:19841   */\n      0x01\n        /* \"#utility.yul\":19832:19838   */\n      dup3\n        /* \"#utility.yul\":19828:19842   */\n      add\n        /* \"#utility.yul\":19818:19842   */\n      swap2\n      pop\n        /* \"#utility.yul\":19887:19889   */\n      0x20\n        /* \"#utility.yul\":19876:19885   */\n      dup6\n        /* \"#utility.yul\":19872:19890   */\n      add\n        /* \"#utility.yul\":19859:19890   */\n      swap5\n      pop\n        /* \"#utility.yul\":19733:19737   */\n      0x20\n        /* \"#utility.yul\":19730:19731   */\n      dup2\n        /* \"#utility.yul\":19726:19738   */\n      add\n        /* \"#utility.yul\":19721:19738   */\n      swap1\n      pop\n        /* \"#utility.yul\":19696:19904   */\n      jump(tag_352)\n    tag_354:\n        /* \"#utility.yul\":19932:19938   */\n      dup7\n        /* \"#utility.yul\":19923:19930   */\n      dup4\n        /* \"#utility.yul\":19920:19939   */\n      lt\n        /* \"#utility.yul\":19917:20096   */\n      iszero\n      tag_355\n      jumpi\n        /* \"#utility.yul\":19990:19999   */\n      dup5\n        /* \"#utility.yul\":19985:19988   */\n      dup10\n        /* \"#utility.yul\":19981:20000   */\n      add\n        /* \"#utility.yul\":19975:20001   */\n      mload\n        /* \"#utility.yul\":20033:20081   */\n      tag_356\n        /* \"#utility.yul\":20075:20079   */\n      0x1f\n        /* \"#utility.yul\":20067:20073   */\n      dup10\n        /* \"#utility.yul\":20063:20080   */\n      and\n        /* \"#utility.yul\":20052:20061   */\n      dup3\n        /* \"#utility.yul\":20033:20081   */\n      tag_148\n      jump\t// in\n    tag_356:\n        /* \"#utility.yul\":20025:20031   */\n      dup4\n        /* \"#utility.yul\":20018:20082   */\n      sstore\n        /* \"#utility.yul\":19940:20096   */\n      pop\n        /* \"#utility.yul\":19917:20096   */\n    tag_355:\n        /* \"#utility.yul\":20142:20143   */\n      0x01\n        /* \"#utility.yul\":20138:20139   */\n      0x02\n        /* \"#utility.yul\":20130:20136   */\n      dup9\n        /* \"#utility.yul\":20126:20140   */\n      mul\n        /* \"#utility.yul\":20122:20144   */\n      add\n        /* \"#utility.yul\":20116:20120   */\n      dup9\n        /* \"#utility.yul\":20109:20145   */\n      sstore\n        /* \"#utility.yul\":19544:20155   */\n      pop\n      pop\n      pop\n        /* \"#utility.yul\":19507:20394   */\n    tag_347:\n      pop\n        /* \"#utility.yul\":19097:20400   */\n      pop\n      pop\n      pop\n        /* \"#utility.yul\":19005:20400   */\n      pop\n      pop\n      jump\t// out\n        /* \"#utility.yul\":20406:20586   */\n    tag_91:\n        /* \"#utility.yul\":20454:20531   */\n      0x4e487b7100000000000000000000000000000000000000000000000000000000\n        /* \"#utility.yul\":20451:20452   */\n      0x00\n        /* \"#utility.yul\":20444:20532   */\n      mstore\n        /* \"#utility.yul\":20551:20555   */\n      0x32\n        /* \"#utility.yul\":20548:20549   */\n      0x04\n        /* \"#utility.yul\":20541:20556   */\n      mstore\n        /* \"#utility.yul\":20575:20579   */\n      0x24\n        /* \"#utility.yul\":20572:20573   */\n      0x00\n        /* \"#utility.yul\":20565:20580   */\n      revert\n\n    auxdata: 0xa2646970667358221220adfc750f9747d978d22bc23f085db33b11d75712bca602a725c4f882dcfc8c7b64736f6c63430008190033\n}\n",
				"bytecode": {
					"linkReferences": {},
					"object": "60806040525f6004553480156012575f80fd5b50611386806100205f395ff3fe608060405234801561000f575f80fd5b506004361061007b575f3560e01c806393320afa1161005957806393320afa146100d55780639b3935a31461010e578063dfb9ba3a1461012a578063e548cb55146101465761007b565b80630c6317e81461007f57806368c9f9881461009b578063691ba73a146100b7575b5f80fd5b610099600480360381019061009491906108e0565b610162565b005b6100b560048036038101906100b09190610998565b610276565b005b6100bf6103d6565b6040516100cc9190610a58565b60405180910390f35b6100ef60048036038101906100ea9190610a78565b610467565b6040516101059a99989796959493929190610ac1565b60405180910390f35b61012860048036038101906101239190610da5565b61055b565b005b610144600480360381019061013f9190610dff565b6106d7565b005b610160600480360381019061015b9190610da5565b6106ec565b005b600a6001800180549050106101ac576040517f08c379a00000000000000000000000000000000000000000000000000000000081526004016101a390610e90565b60405180910390fd5b5f1515610209600180018054806020026020016040519081016040528092919081815260200182805480156101fe57602002820191905f5260205f20905b8154815260200190600101908083116101ea575b50505050508361084a565b15151461024b576040517f08c379a000000000000000000000000000000000000000000000000000000000815260040161024290610ef8565b60405180910390fd5b6001800181908060018154018082558091505060019003905f5260205f20015f909190919091505550565b600115156102d4600180018054806020026020016040519081016040528092919081815260200182805480156102c957602002820191905f5260205f20905b8154815260200190600101908083116102b5575b50505050508461084a565b151514610316576040517f08c379a000000000000000000000000000000000000000000000000000000000815260040161030d90610f60565b60405180910390fd5b5f60405180606001604052808573ffffffffffffffffffffffffffffffffffffffff168152602001848152602001838152509050600160020181908060018154018082558091505060019003905f5260205f2090600302015f909190919091505f820151815f015f6101000a81548173ffffffffffffffffffffffffffffffffffffffff021916908373ffffffffffffffffffffffffffffffffffffffff1602179055506020820151816001015560408201518160020155505050505050565b6001805f0180546103e690610fab565b80601f016020809104026020016040519081016040528092919081815260200182805461041290610fab565b801561045d5780601f106104345761010080835404028352916020019161045d565b820191905f5260205f20905b81548152906001019060200180831161044057829003601f168201915b5050505050905081565b5f602052805f5260405f205f91509050805f01549080600101805461048b90610fab565b80601f01602080910402602001604051908101604052809291908181526020018280546104b790610fab565b80156105025780601f106104d957610100808354040283529160200191610502565b820191905f5260205f20905b8154815290600101906020018083116104e557829003601f168201915b505050505090806002015f9054906101000a900473ffffffffffffffffffffffffffffffffffffffff1690806003015490806004015490806005015490806006015490806007015490806008015490806009015490508a565b8173ffffffffffffffffffffffffffffffffffffffff163373ffffffffffffffffffffffffffffffffffffffff16146105c9576040517f08c379a00000000000000000000000000000000000000000000000000000000081526004016105c090611025565b60405180910390fd5b60045f8154809291906105db90611070565b91905055815f018181525050805f808473ffffffffffffffffffffffffffffffffffffffff1673ffffffffffffffffffffffffffffffffffffffff1681526020019081526020015f205f820151815f015560208201518160010190816106419190611254565b506040820151816002015f6101000a81548173ffffffffffffffffffffffffffffffffffffffff021916908373ffffffffffffffffffffffffffffffffffffffff160217905550606082015181600301556080820151816004015560a0820151816005015560c0820151816006015560e08201518160070155610100820151816008015561012082015181600901559050505050565b8060015f0190816106e89190611254565b5050565b8173ffffffffffffffffffffffffffffffffffffffff163373ffffffffffffffffffffffffffffffffffffffff161461075a576040517f08c379a000000000000000000000000000000000000000000000000000000000815260040161075190611025565b60405180910390fd5b805f808473ffffffffffffffffffffffffffffffffffffffff1673ffffffffffffffffffffffffffffffffffffffff1681526020019081526020015f205f820151815f015560208201518160010190816107b49190611254565b506040820151816002015f6101000a81548173ffffffffffffffffffffffffffffffffffffffff021916908373ffffffffffffffffffffffffffffffffffffffff160217905550606082015181600301556080820151816004015560a0820151816005015560c0820151816006015560e08201518160070155610100820151816008015561012082015181600901559050505050565b5f805f90505b8351811015610891578284828151811061086d5761086c611323565b5b602002602001015103610884576001915050610896565b8080600101915050610850565b505f90505b92915050565b5f604051905090565b5f80fd5b5f80fd5b5f819050919050565b6108bf816108ad565b81146108c9575f80fd5b50565b5f813590506108da816108b6565b92915050565b5f602082840312156108f5576108f46108a5565b5b5f610902848285016108cc565b91505092915050565b5f73ffffffffffffffffffffffffffffffffffffffff82169050919050565b5f6109348261090b565b9050919050565b6109448161092a565b811461094e575f80fd5b50565b5f8135905061095f8161093b565b92915050565b5f819050919050565b61097781610965565b8114610981575f80fd5b50565b5f813590506109928161096e565b92915050565b5f805f606084860312156109af576109ae6108a5565b5b5f6109bc86828701610951565b93505060206109cd868287016108cc565b92505060406109de86828701610984565b9150509250925092565b5f81519050919050565b5f82825260208201905092915050565b8281835e5f83830152505050565b5f601f19601f8301169050919050565b5f610a2a826109e8565b610a3481856109f2565b9350610a44818560208601610a02565b610a4d81610a10565b840191505092915050565b5f6020820190508181035f830152610a708184610a20565b905092915050565b5f60208284031215610a8d57610a8c6108a5565b5b5f610a9a84828501610951565b91505092915050565b610aac816108ad565b82525050565b610abb8161092a565b82525050565b5f61014082019050610ad55f83018d610aa3565b8181036020830152610ae7818c610a20565b9050610af6604083018b610ab2565b610b03606083018a610aa3565b610b106080830189610aa3565b610b1d60a0830188610aa3565b610b2a60c0830187610aa3565b610b3760e0830186610aa3565b610b45610100830185610aa3565b610b53610120830184610aa3565b9b9a5050505050505050505050565b5f80fd5b7f4e487b71000000000000000000000000000000000000000000000000000000005f52604160045260245ffd5b610b9c82610a10565b810181811067ffffffffffffffff82111715610bbb57610bba610b66565b5b80604052505050565b5f610bcd61089c565b9050610bd98282610b93565b919050565b5f80fd5b5f80fd5b5f80fd5b5f67ffffffffffffffff821115610c0457610c03610b66565b5b610c0d82610a10565b9050602081019050919050565b828183375f83830152505050565b5f610c3a610c3584610bea565b610bc4565b905082815260208101848484011115610c5657610c55610be6565b5b610c61848285610c1a565b509392505050565b5f82601f830112610c7d57610c7c610be2565b5b8135610c8d848260208601610c28565b91505092915050565b5f6101408284031215610cac57610cab610b62565b5b610cb7610140610bc4565b90505f610cc6848285016108cc565b5f83015250602082013567ffffffffffffffff811115610ce957610ce8610bde565b5b610cf584828501610c69565b6020830152506040610d0984828501610951565b6040830152506060610d1d848285016108cc565b6060830152506080610d31848285016108cc565b60808301525060a0610d45848285016108cc565b60a08301525060c0610d59848285016108cc565b60c08301525060e0610d6d848285016108cc565b60e083015250610100610d82848285016108cc565b61010083015250610120610d98848285016108cc565b6101208301525092915050565b5f8060408385031215610dbb57610dba6108a5565b5b5f610dc885828601610951565b925050602083013567ffffffffffffffff811115610de957610de86108a9565b5b610df585828601610c96565b9150509250929050565b5f60208284031215610e1457610e136108a5565b5b5f82013567ffffffffffffffff811115610e3157610e306108a9565b5b610e3d84828501610c69565b91505092915050565b7f526163652069732066756c6c00000000000000000000000000000000000000005f82015250565b5f610e7a600c836109f2565b9150610e8582610e46565b602082019050919050565b5f6020820190508181035f830152610ea781610e6e565b9050919050565b7f486f72736520616c72656164792070726573656e7400000000000000000000005f82015250565b5f610ee26015836109f2565b9150610eed82610eae565b602082019050919050565b5f6020820190508181035f830152610f0f81610ed6565b9050919050565b7f486f727365206e6f7420696e20746865207261636500000000000000000000005f82015250565b5f610f4a6015836109f2565b9150610f5582610f16565b602082019050919050565b5f6020820190508181035f830152610f7781610f3e565b9050919050565b7f4e487b71000000000000000000000000000000000000000000000000000000005f52602260045260245ffd5b5f6002820490506001821680610fc257607f821691505b602082108103610fd557610fd4610f7e565b5b50919050565b7f556e617070726f7665642063616c6c65720000000000000000000000000000005f82015250565b5f61100f6011836109f2565b915061101a82610fdb565b602082019050919050565b5f6020820190508181035f83015261103c81611003565b9050919050565b7f4e487b71000000000000000000000000000000000000000000000000000000005f52601160045260245ffd5b5f61107a826108ad565b91507f7fffffffffffffffffffffffffffffffffffffffffffffffffffffffffffffff82036110ac576110ab611043565b5b600182019050919050565b5f819050815f5260205f209050919050565b5f6020601f8301049050919050565b5f82821b905092915050565b5f600883026111137fffffffffffffffffffffffffffffffffffffffffffffffffffffffffffffffff826110d8565b61111d86836110d8565b95508019841693508086168417925050509392505050565b5f819050919050565b5f61115861115361114e84610965565b611135565b610965565b9050919050565b5f819050919050565b6111718361113e565b61118561117d8261115f565b8484546110e4565b825550505050565b5f90565b61119961118d565b6111a4818484611168565b505050565b5b818110156111c7576111bc5f82611191565b6001810190506111aa565b5050565b601f82111561120c576111dd816110b7565b6111e6846110c9565b810160208510156111f5578190505b611209611201856110c9565b8301826111a9565b50505b505050565b5f82821c905092915050565b5f61122c5f1984600802611211565b1980831691505092915050565b5f611244838361121d565b9150826002028217905092915050565b61125d826109e8565b67ffffffffffffffff81111561127657611275610b66565b5b6112808254610fab565b61128b8282856111cb565b5f60209050601f8311600181146112bc575f84156112aa578287015190505b6112b48582611239565b86555061131b565b601f1984166112ca866110b7565b5f5b828110156112f1578489015182556001820191506020850194506020810190506112cc565b8683101561130e578489015161130a601f89168261121d565b8355505b6001600288020188555050505b505050505050565b7f4e487b71000000000000000000000000000000000000000000000000000000005f52603260045260245ffdfea2646970667358221220adfc750f9747d978d22bc23f085db33b11d75712bca602a725c4f882dcfc8c7b64736f6c63430008190033",
					"opcodes": "PUSH1 0x80 PUSH1 0x40 MSTORE PUSH0 PUSH1 0x4 SSTORE CALLVALUE DUP1 ISZERO PUSH1 0x12 JUMPI PUSH0 DUP1 REVERT JUMPDEST POP PUSH2 0x1386 DUP1 PUSH2 0x20 PUSH0 CODECOPY PUSH0 RETURN INVALID PUSH1 0x80 PUSH1 0x40 MSTORE CALLVALUE DUP1 ISZERO PUSH2 0xF JUMPI PUSH0 DUP1 REVERT JUMPDEST POP PUSH1 0x4 CALLDATASIZE LT PUSH2 0x7B JUMPI PUSH0 CALLDATALOAD PUSH1 0xE0 SHR DUP1 PUSH4 0x93320AFA GT PUSH2 0x59 JUMPI DUP1 PUSH4 0x93320AFA EQ PUSH2 0xD5 JUMPI DUP1 PUSH4 0x9B3935A3 EQ PUSH2 0x10E JUMPI DUP1 PUSH4 0xDFB9BA3A EQ PUSH2 0x12A JUMPI DUP1 PUSH4 0xE548CB55 EQ PUSH2 0x146 JUMPI PUSH2 0x7B JUMP JUMPDEST DUP1 PUSH4 0xC6317E8 EQ PUSH2 0x7F JUMPI DUP1 PUSH4 0x68C9F988 EQ PUSH2 0x9B JUMPI DUP1 PUSH4 0x691BA73A EQ PUSH2 0xB7 JUMPI JUMPDEST PUSH0 DUP1 REVERT JUMPDEST PUSH2 0x99 PUSH1 0x4 DUP1 CALLDATASIZE SUB DUP2 ADD SWAP1 PUSH2 0x94 SWAP2 SWAP1 PUSH2 0x8E0 JUMP JUMPDEST PUSH2 0x162 JUMP JUMPDEST STOP JUMPDEST PUSH2 0xB5 PUSH1 0x4 DUP1 CALLDATASIZE SUB DUP2 ADD SWAP1 PUSH2 0xB0 SWAP2 SWAP1 PUSH2 0x998 JUMP JUMPDEST PUSH2 0x276 JUMP JUMPDEST STOP JUMPDEST PUSH2 0xBF PUSH2 0x3D6 JUMP JUMPDEST PUSH1 0x40 MLOAD PUSH2 0xCC SWAP2 SWAP1 PUSH2 0xA58 JUMP JUMPDEST PUSH1 0x40 MLOAD DUP1 SWAP2 SUB SWAP1 RETURN JUMPDEST PUSH2 0xEF PUSH1 0x4 DUP1 CALLDATASIZE SUB DUP2 ADD SWAP1 PUSH2 0xEA SWAP2 SWAP1 PUSH2 0xA78 JUMP JUMPDEST PUSH2 0x467 JUMP JUMPDEST PUSH1 0x40 MLOAD PUSH2 0x105 SWAP11 SWAP10 SWAP9 SWAP8 SWAP7 SWAP6 SWAP5 SWAP4 SWAP3 SWAP2 SWAP1 PUSH2 0xAC1 JUMP JUMPDEST PUSH1 0x40 MLOAD DUP1 SWAP2 SUB SWAP1 RETURN JUMPDEST PUSH2 0x128 PUSH1 0x4 DUP1 CALLDATASIZE SUB DUP2 ADD SWAP1 PUSH2 0x123 SWAP2 SWAP1 PUSH2 0xDA5 JUMP JUMPDEST PUSH2 0x55B JUMP JUMPDEST STOP JUMPDEST PUSH2 0x144 PUSH1 0x4 DUP1 CALLDATASIZE SUB DUP2 ADD SWAP1 PUSH2 0x13F SWAP2 SWAP1 PUSH2 0xDFF JUMP JUMPDEST PUSH2 0x6D7 JUMP JUMPDEST STOP JUMPDEST PUSH2 0x160 PUSH1 0x4 DUP1 CALLDATASIZE SUB DUP2 ADD SWAP1 PUSH2 0x15B SWAP2 SWAP1 PUSH2 0xDA5 JUMP JUMPDEST PUSH2 0x6EC JUMP JUMPDEST STOP JUMPDEST PUSH1 0xA PUSH1 0x1 DUP1 ADD DUP1 SLOAD SWAP1 POP LT PUSH2 0x1AC JUMPI PUSH1 0x40 MLOAD PUSH32 0x8C379A000000000000000000000000000000000000000000000000000000000 DUP2 MSTORE PUSH1 0x4 ADD PUSH2 0x1A3 SWAP1 PUSH2 0xE90 JUMP JUMPDEST PUSH1 0x40 MLOAD DUP1 SWAP2 SUB SWAP1 REVERT JUMPDEST PUSH0 ISZERO ISZERO PUSH2 0x209 PUSH1 0x1 DUP1 ADD DUP1 SLOAD DUP1 PUSH1 0x20 MUL PUSH1 0x20 ADD PUSH1 0x40 MLOAD SWAP1 DUP2 ADD PUSH1 0x40 MSTORE DUP1 SWAP3 SWAP2 SWAP1 DUP2 DUP2 MSTORE PUSH1 0x20 ADD DUP3 DUP1 SLOAD DUP1 ISZERO PUSH2 0x1FE JUMPI PUSH1 0x20 MUL DUP3 ADD SWAP2 SWAP1 PUSH0 MSTORE PUSH1 0x20 PUSH0 KECCAK256 SWAP1 JUMPDEST DUP2 SLOAD DUP2 MSTORE PUSH1 0x20 ADD SWAP1 PUSH1 0x1 ADD SWAP1 DUP1 DUP4 GT PUSH2 0x1EA JUMPI JUMPDEST POP POP POP POP POP DUP4 PUSH2 0x84A JUMP JUMPDEST ISZERO ISZERO EQ PUSH2 0x24B JUMPI PUSH1 0x40 MLOAD PUSH32 0x8C379A000000000000000000000000000000000000000000000000000000000 DUP2 MSTORE PUSH1 0x4 ADD PUSH2 0x242 SWAP1 PUSH2 0xEF8 JUMP JUMPDEST PUSH1 0x40 MLOAD DUP1 SWAP2 SUB SWAP1 REVERT JUMPDEST PUSH1 0x1 DUP1 ADD DUP2 SWAP1 DUP1 PUSH1 0x1 DUP2 SLOAD ADD DUP1 DUP3 SSTORE DUP1 SWAP2 POP POP PUSH1 0x1 SWAP1 SUB SWAP1 PUSH0 MSTORE PUSH1 0x20 PUSH0 KECCAK256 ADD PUSH0 SWAP1 SWAP2 SWAP1 SWAP2 SWAP1 SWAP2 POP SSTORE POP JUMP JUMPDEST PUSH1 0x1 ISZERO ISZERO PUSH2 0x2D4 PUSH1 0x1 DUP1 ADD DUP1 SLOAD DUP1 PUSH1 0x20 MUL PUSH1 0x20 ADD PUSH1 0x40 MLOAD SWAP1 DUP2 ADD PUSH1 0x40 MSTORE DUP1 SWAP3 SWAP2 SWAP1 DUP2 DUP2 MSTORE PUSH1 0x20 ADD DUP3 DUP1 SLOAD DUP1 ISZERO PUSH2 0x2C9 JUMPI PUSH1 0x20 MUL DUP3 ADD SWAP2 SWAP1 PUSH0 MSTORE PUSH1 0x20 PUSH0 KECCAK256 SWAP1 JUMPDEST DUP2 SLOAD DUP2 MSTORE PUSH1 0x20 ADD SWAP1 PUSH1 0x1 ADD SWAP1 DUP1 DUP4 GT PUSH2 0x2B5 JUMPI JUMPDEST POP POP POP POP POP DUP5 PUSH2 0x84A JUMP JUMPDEST ISZERO ISZERO EQ PUSH2 0x316 JUMPI PUSH1 0x40 MLOAD PUSH32 0x8C379A000000000000000000000000000000000000000000000000000000000 DUP2 MSTORE PUSH1 0x4 ADD PUSH2 0x30D SWAP1 PUSH2 0xF60 JUMP JUMPDEST PUSH1 0x40 MLOAD DUP1 SWAP2 SUB SWAP1 REVERT JUMPDEST PUSH0 PUSH1 0x40 MLOAD DUP1 PUSH1 0x60 ADD PUSH1 0x40 MSTORE DUP1 DUP6 PUSH20 0xFFFFFFFFFFFFFFFFFFFFFFFFFFFFFFFFFFFFFFFF AND DUP2 MSTORE PUSH1 0x20 ADD DUP5 DUP2 MSTORE PUSH1 0x20 ADD DUP4 DUP2 MSTORE POP SWAP1 POP PUSH1 0x1 PUSH1 0x2 ADD DUP2 SWAP1 DUP1 PUSH1 0x1 DUP2 SLOAD ADD DUP1 DUP3 SSTORE DUP1 SWAP2 POP POP PUSH1 0x1 SWAP1 SUB SWAP1 PUSH0 MSTORE PUSH1 0x20 PUSH0 KECCAK256 SWAP1 PUSH1 0x3 MUL ADD PUSH0 SWAP1 SWAP2 SWAP1 SWAP2 SWAP1 SWAP2 POP PUSH0 DUP3 ADD MLOAD DUP2 PUSH0 ADD PUSH0 PUSH2 0x100 EXP DUP2 SLOAD DUP2 PUSH20 0xFFFFFFFFFFFFFFFFFFFFFFFFFFFFFFFFFFFFFFFF MUL NOT AND SWAP1 DUP4 PUSH20 0xFFFFFFFFFFFFFFFFFFFFFFFFFFFFFFFFFFFFFFFF AND MUL OR SWAP1 SSTORE POP PUSH1 0x20 DUP3 ADD MLOAD DUP2 PUSH1 0x1 ADD SSTORE PUSH1 0x40 DUP3 ADD MLOAD DUP2 PUSH1 0x2 ADD SSTORE POP POP POP POP POP POP JUMP JUMPDEST PUSH1 0x1 DUP1 PUSH0 ADD DUP1 SLOAD PUSH2 0x3E6 SWAP1 PUSH2 0xFAB JUMP JUMPDEST DUP1 PUSH1 0x1F ADD PUSH1 0x20 DUP1 SWAP2 DIV MUL PUSH1 0x20 ADD PUSH1 0x40 MLOAD SWAP1 DUP2 ADD PUSH1 0x40 MSTORE DUP1 SWAP3 SWAP2 SWAP1 DUP2 DUP2 MSTORE PUSH1 0x20 ADD DUP3 DUP1 SLOAD PUSH2 0x412 SWAP1 PUSH2 0xFAB JUMP JUMPDEST DUP1 ISZERO PUSH2 0x45D JUMPI DUP1 PUSH1 0x1F LT PUSH2 0x434 JUMPI PUSH2 0x100 DUP1 DUP4 SLOAD DIV MUL DUP4 MSTORE SWAP2 PUSH1 0x20 ADD SWAP2 PUSH2 0x45D JUMP JUMPDEST DUP3 ADD SWAP2 SWAP1 PUSH0 MSTORE PUSH1 0x20 PUSH0 KECCAK256 SWAP1 JUMPDEST DUP2 SLOAD DUP2 MSTORE SWAP1 PUSH1 0x1 ADD SWAP1 PUSH1 0x20 ADD DUP1 DUP4 GT PUSH2 0x440 JUMPI DUP3 SWAP1 SUB PUSH1 0x1F AND DUP3 ADD SWAP2 JUMPDEST POP POP POP POP POP SWAP1 POP DUP2 JUMP JUMPDEST PUSH0 PUSH1 0x20 MSTORE DUP1 PUSH0 MSTORE PUSH1 0x40 PUSH0 KECCAK256 PUSH0 SWAP2 POP SWAP1 POP DUP1 PUSH0 ADD SLOAD SWAP1 DUP1 PUSH1 0x1 ADD DUP1 SLOAD PUSH2 0x48B SWAP1 PUSH2 0xFAB JUMP JUMPDEST DUP1 PUSH1 0x1F ADD PUSH1 0x20 DUP1 SWAP2 DIV MUL PUSH1 0x20 ADD PUSH1 0x40 MLOAD SWAP1 DUP2 ADD PUSH1 0x40 MSTORE DUP1 SWAP3 SWAP2 SWAP1 DUP2 DUP2 MSTORE PUSH1 0x20 ADD DUP3 DUP1 SLOAD PUSH2 0x4B7 SWAP1 PUSH2 0xFAB JUMP JUMPDEST DUP1 ISZERO PUSH2 0x502 JUMPI DUP1 PUSH1 0x1F LT PUSH2 0x4D9 JUMPI PUSH2 0x100 DUP1 DUP4 SLOAD DIV MUL DUP4 MSTORE SWAP2 PUSH1 0x20 ADD SWAP2 PUSH2 0x502 JUMP JUMPDEST DUP3 ADD SWAP2 SWAP1 PUSH0 MSTORE PUSH1 0x20 PUSH0 KECCAK256 SWAP1 JUMPDEST DUP2 SLOAD DUP2 MSTORE SWAP1 PUSH1 0x1 ADD SWAP1 PUSH1 0x20 ADD DUP1 DUP4 GT PUSH2 0x4E5 JUMPI DUP3 SWAP1 SUB PUSH1 0x1F AND DUP3 ADD SWAP2 JUMPDEST POP POP POP POP POP SWAP1 DUP1 PUSH1 0x2 ADD PUSH0 SWAP1 SLOAD SWAP1 PUSH2 0x100 EXP SWAP1 DIV PUSH20 0xFFFFFFFFFFFFFFFFFFFFFFFFFFFFFFFFFFFFFFFF AND SWAP1 DUP1 PUSH1 0x3 ADD SLOAD SWAP1 DUP1 PUSH1 0x4 ADD SLOAD SWAP1 DUP1 PUSH1 0x5 ADD SLOAD SWAP1 DUP1 PUSH1 0x6 ADD SLOAD SWAP1 DUP1 PUSH1 0x7 ADD SLOAD SWAP1 DUP1 PUSH1 0x8 ADD SLOAD SWAP1 DUP1 PUSH1 0x9 ADD SLOAD SWAP1 POP DUP11 JUMP JUMPDEST DUP2 PUSH20 0xFFFFFFFFFFFFFFFFFFFFFFFFFFFFFFFFFFFFFFFF AND CALLER PUSH20 0xFFFFFFFFFFFFFFFFFFFFFFFFFFFFFFFFFFFFFFFF AND EQ PUSH2 0x5C9 JUMPI PUSH1 0x40 MLOAD PUSH32 0x8C379A000000000000000000000000000000000000000000000000000000000 DUP2 MSTORE PUSH1 0x4 ADD PUSH2 0x5C0 SWAP1 PUSH2 0x1025 JUMP JUMPDEST PUSH1 0x40 MLOAD DUP1 SWAP2 SUB SWAP1 REVERT JUMPDEST PUSH1 0x4 PUSH0 DUP2 SLOAD DUP1 SWAP3 SWAP2 SWAP1 PUSH2 0x5DB SWAP1 PUSH2 0x1070 JUMP JUMPDEST SWAP2 SWAP1 POP SSTORE DUP2 PUSH0 ADD DUP2 DUP2 MSTORE POP POP DUP1 PUSH0 DUP1 DUP5 PUSH20 0xFFFFFFFFFFFFFFFFFFFFFFFFFFFFFFFFFFFFFFFF AND PUSH20 0xFFFFFFFFFFFFFFFFFFFFFFFFFFFFFFFFFFFFFFFF AND DUP2 MSTORE PUSH1 0x20 ADD SWAP1 DUP2 MSTORE PUSH1 0x20 ADD PUSH0 KECCAK256 PUSH0 DUP3 ADD MLOAD DUP2 PUSH0 ADD SSTORE PUSH1 0x20 DUP3 ADD MLOAD DUP2 PUSH1 0x1 ADD SWAP1 DUP2 PUSH2 0x641 SWAP2 SWAP1 PUSH2 0x1254 JUMP JUMPDEST POP PUSH1 0x40 DUP3 ADD MLOAD DUP2 PUSH1 0x2 ADD PUSH0 PUSH2 0x100 EXP DUP2 SLOAD DUP2 PUSH20 0xFFFFFFFFFFFFFFFFFFFFFFFFFFFFFFFFFFFFFFFF MUL NOT AND SWAP1 DUP4 PUSH20 0xFFFFFFFFFFFFFFFFFFFFFFFFFFFFFFFFFFFFFFFF AND MUL OR SWAP1 SSTORE POP PUSH1 0x60 DUP3 ADD MLOAD DUP2 PUSH1 0x3 ADD SSTORE PUSH1 0x80 DUP3 ADD MLOAD DUP2 PUSH1 0x4 ADD SSTORE PUSH1 0xA0 DUP3 ADD MLOAD DUP2 PUSH1 0x5 ADD SSTORE PUSH1 0xC0 DUP3 ADD MLOAD DUP2 PUSH1 0x6 ADD SSTORE PUSH1 0xE0 DUP3 ADD MLOAD DUP2 PUSH1 0x7 ADD SSTORE PUSH2 0x100 DUP3 ADD MLOAD DUP2 PUSH1 0x8 ADD SSTORE PUSH2 0x120 DUP3 ADD MLOAD DUP2 PUSH1 0x9 ADD SSTORE SWAP1 POP POP POP POP JUMP JUMPDEST DUP1 PUSH1 0x1 PUSH0 ADD SWAP1 DUP2 PUSH2 0x6E8 SWAP2 SWAP1 PUSH2 0x1254 JUMP JUMPDEST POP POP JUMP JUMPDEST DUP2 PUSH20 0xFFFFFFFFFFFFFFFFFFFFFFFFFFFFFFFFFFFFFFFF AND CALLER PUSH20 0xFFFFFFFFFFFFFFFFFFFFFFFFFFFFFFFFFFFFFFFF AND EQ PUSH2 0x75A JUMPI PUSH1 0x40 MLOAD PUSH32 0x8C379A000000000000000000000000000000000000000000000000000000000 DUP2 MSTORE PUSH1 0x4 ADD PUSH2 0x751 SWAP1 PUSH2 0x1025 JUMP JUMPDEST PUSH1 0x40 MLOAD DUP1 SWAP2 SUB SWAP1 REVERT JUMPDEST DUP1 PUSH0 DUP1 DUP5 PUSH20 0xFFFFFFFFFFFFFFFFFFFFFFFFFFFFFFFFFFFFFFFF AND PUSH20 0xFFFFFFFFFFFFFFFFFFFFFFFFFFFFFFFFFFFFFFFF AND DUP2 MSTORE PUSH1 0x20 ADD SWAP1 DUP2 MSTORE PUSH1 0x20 ADD PUSH0 KECCAK256 PUSH0 DUP3 ADD MLOAD DUP2 PUSH0 ADD SSTORE PUSH1 0x20 DUP3 ADD MLOAD DUP2 PUSH1 0x1 ADD SWAP1 DUP2 PUSH2 0x7B4 SWAP2 SWAP1 PUSH2 0x1254 JUMP JUMPDEST POP PUSH1 0x40 DUP3 ADD MLOAD DUP2 PUSH1 0x2 ADD PUSH0 PUSH2 0x100 EXP DUP2 SLOAD DUP2 PUSH20 0xFFFFFFFFFFFFFFFFFFFFFFFFFFFFFFFFFFFFFFFF MUL NOT AND SWAP1 DUP4 PUSH20 0xFFFFFFFFFFFFFFFFFFFFFFFFFFFFFFFFFFFFFFFF AND MUL OR SWAP1 SSTORE POP PUSH1 0x60 DUP3 ADD MLOAD DUP2 PUSH1 0x3 ADD SSTORE PUSH1 0x80 DUP3 ADD MLOAD DUP2 PUSH1 0x4 ADD SSTORE PUSH1 0xA0 DUP3 ADD MLOAD DUP2 PUSH1 0x5 ADD SSTORE PUSH1 0xC0 DUP3 ADD MLOAD DUP2 PUSH1 0x6 ADD SSTORE PUSH1 0xE0 DUP3 ADD MLOAD DUP2 PUSH1 0x7 ADD SSTORE PUSH2 0x100 DUP3 ADD MLOAD DUP2 PUSH1 0x8 ADD SSTORE PUSH2 0x120 DUP3 ADD MLOAD DUP2 PUSH1 0x9 ADD SSTORE SWAP1 POP POP POP POP JUMP JUMPDEST PUSH0 DUP1 PUSH0 SWAP1 POP JUMPDEST DUP4 MLOAD DUP2 LT ISZERO PUSH2 0x891 JUMPI DUP3 DUP5 DUP3 DUP2 MLOAD DUP2 LT PUSH2 0x86D JUMPI PUSH2 0x86C PUSH2 0x1323 JUMP JUMPDEST JUMPDEST PUSH1 0x20 MUL PUSH1 0x20 ADD ADD MLOAD SUB PUSH2 0x884 JUMPI PUSH1 0x1 SWAP2 POP POP PUSH2 0x896 JUMP JUMPDEST DUP1 DUP1 PUSH1 0x1 ADD SWAP2 POP POP PUSH2 0x850 JUMP JUMPDEST POP PUSH0 SWAP1 POP JUMPDEST SWAP3 SWAP2 POP POP JUMP JUMPDEST PUSH0 PUSH1 0x40 MLOAD SWAP1 POP SWAP1 JUMP JUMPDEST PUSH0 DUP1 REVERT JUMPDEST PUSH0 DUP1 REVERT JUMPDEST PUSH0 DUP2 SWAP1 POP SWAP2 SWAP1 POP JUMP JUMPDEST PUSH2 0x8BF DUP2 PUSH2 0x8AD JUMP JUMPDEST DUP2 EQ PUSH2 0x8C9 JUMPI PUSH0 DUP1 REVERT JUMPDEST POP JUMP JUMPDEST PUSH0 DUP2 CALLDATALOAD SWAP1 POP PUSH2 0x8DA DUP2 PUSH2 0x8B6 JUMP JUMPDEST SWAP3 SWAP2 POP POP JUMP JUMPDEST PUSH0 PUSH1 0x20 DUP3 DUP5 SUB SLT ISZERO PUSH2 0x8F5 JUMPI PUSH2 0x8F4 PUSH2 0x8A5 JUMP JUMPDEST JUMPDEST PUSH0 PUSH2 0x902 DUP5 DUP3 DUP6 ADD PUSH2 0x8CC JUMP JUMPDEST SWAP2 POP POP SWAP3 SWAP2 POP POP JUMP JUMPDEST PUSH0 PUSH20 0xFFFFFFFFFFFFFFFFFFFFFFFFFFFFFFFFFFFFFFFF DUP3 AND SWAP1 POP SWAP2 SWAP1 POP JUMP JUMPDEST PUSH0 PUSH2 0x934 DUP3 PUSH2 0x90B JUMP JUMPDEST SWAP1 POP SWAP2 SWAP1 POP JUMP JUMPDEST PUSH2 0x944 DUP2 PUSH2 0x92A JUMP JUMPDEST DUP2 EQ PUSH2 0x94E JUMPI PUSH0 DUP1 REVERT JUMPDEST POP JUMP JUMPDEST PUSH0 DUP2 CALLDATALOAD SWAP1 POP PUSH2 0x95F DUP2 PUSH2 0x93B JUMP JUMPDEST SWAP3 SWAP2 POP POP JUMP JUMPDEST PUSH0 DUP2 SWAP1 POP SWAP2 SWAP1 POP JUMP JUMPDEST PUSH2 0x977 DUP2 PUSH2 0x965 JUMP JUMPDEST DUP2 EQ PUSH2 0x981 JUMPI PUSH0 DUP1 REVERT JUMPDEST POP JUMP JUMPDEST PUSH0 DUP2 CALLDATALOAD SWAP1 POP PUSH2 0x992 DUP2 PUSH2 0x96E JUMP JUMPDEST SWAP3 SWAP2 POP POP JUMP JUMPDEST PUSH0 DUP1 PUSH0 PUSH1 0x60 DUP5 DUP7 SUB SLT ISZERO PUSH2 0x9AF JUMPI PUSH2 0x9AE PUSH2 0x8A5 JUMP JUMPDEST JUMPDEST PUSH0 PUSH2 0x9BC DUP7 DUP3 DUP8 ADD PUSH2 0x951 JUMP JUMPDEST SWAP4 POP POP PUSH1 0x20 PUSH2 0x9CD DUP7 DUP3 DUP8 ADD PUSH2 0x8CC JUMP JUMPDEST SWAP3 POP POP PUSH1 0x40 PUSH2 0x9DE DUP7 DUP3 DUP8 ADD PUSH2 0x984 JUMP JUMPDEST SWAP2 POP POP SWAP3 POP SWAP3 POP SWAP3 JUMP JUMPDEST PUSH0 DUP2 MLOAD SWAP1 POP SWAP2 SWAP1 POP JUMP JUMPDEST PUSH0 DUP3 DUP3 MSTORE PUSH1 0x20 DUP3 ADD SWAP1 POP SWAP3 SWAP2 POP POP JUMP JUMPDEST DUP3 DUP2 DUP4 MCOPY PUSH0 DUP4 DUP4 ADD MSTORE POP POP POP JUMP JUMPDEST PUSH0 PUSH1 0x1F NOT PUSH1 0x1F DUP4 ADD AND SWAP1 POP SWAP2 SWAP1 POP JUMP JUMPDEST PUSH0 PUSH2 0xA2A DUP3 PUSH2 0x9E8 JUMP JUMPDEST PUSH2 0xA34 DUP2 DUP6 PUSH2 0x9F2 JUMP JUMPDEST SWAP4 POP PUSH2 0xA44 DUP2 DUP6 PUSH1 0x20 DUP7 ADD PUSH2 0xA02 JUMP JUMPDEST PUSH2 0xA4D DUP2 PUSH2 0xA10 JUMP JUMPDEST DUP5 ADD SWAP2 POP POP SWAP3 SWAP2 POP POP JUMP JUMPDEST PUSH0 PUSH1 0x20 DUP3 ADD SWAP1 POP DUP2 DUP2 SUB PUSH0 DUP4 ADD MSTORE PUSH2 0xA70 DUP2 DUP5 PUSH2 0xA20 JUMP JUMPDEST SWAP1 POP SWAP3 SWAP2 POP POP JUMP JUMPDEST PUSH0 PUSH1 0x20 DUP3 DUP5 SUB SLT ISZERO PUSH2 0xA8D JUMPI PUSH2 0xA8C PUSH2 0x8A5 JUMP JUMPDEST JUMPDEST PUSH0 PUSH2 0xA9A DUP5 DUP3 DUP6 ADD PUSH2 0x951 JUMP JUMPDEST SWAP2 POP POP SWAP3 SWAP2 POP POP JUMP JUMPDEST PUSH2 0xAAC DUP2 PUSH2 0x8AD JUMP JUMPDEST DUP3 MSTORE POP POP JUMP JUMPDEST PUSH2 0xABB DUP2 PUSH2 0x92A JUMP JUMPDEST DUP3 MSTORE POP POP JUMP JUMPDEST PUSH0 PUSH2 0x140 DUP3 ADD SWAP1 POP PUSH2 0xAD5 PUSH0 DUP4 ADD DUP14 PUSH2 0xAA3 JUMP JUMPDEST DUP2 DUP2 SUB PUSH1 0x20 DUP4 ADD MSTORE PUSH2 0xAE7 DUP2 DUP13 PUSH2 0xA20 JUMP JUMPDEST SWAP1 POP PUSH2 0xAF6 PUSH1 0x40 DUP4 ADD DUP12 PUSH2 0xAB2 JUMP JUMPDEST PUSH2 0xB03 PUSH1 0x60 DUP4 ADD DUP11 PUSH2 0xAA3 JUMP JUMPDEST PUSH2 0xB10 PUSH1 0x80 DUP4 ADD DUP10 PUSH2 0xAA3 JUMP JUMPDEST PUSH2 0xB1D PUSH1 0xA0 DUP4 ADD DUP9 PUSH2 0xAA3 JUMP JUMPDEST PUSH2 0xB2A PUSH1 0xC0 DUP4 ADD DUP8 PUSH2 0xAA3 JUMP JUMPDEST PUSH2 0xB37 PUSH1 0xE0 DUP4 ADD DUP7 PUSH2 0xAA3 JUMP JUMPDEST PUSH2 0xB45 PUSH2 0x100 DUP4 ADD DUP6 PUSH2 0xAA3 JUMP JUMPDEST PUSH2 0xB53 PUSH2 0x120 DUP4 ADD DUP5 PUSH2 0xAA3 JUMP JUMPDEST SWAP12 SWAP11 POP POP POP POP POP POP POP POP POP POP POP JUMP JUMPDEST PUSH0 DUP1 REVERT JUMPDEST PUSH32 0x4E487B7100000000000000000000000000000000000000000000000000000000 PUSH0 MSTORE PUSH1 0x41 PUSH1 0x4 MSTORE PUSH1 0x24 PUSH0 REVERT JUMPDEST PUSH2 0xB9C DUP3 PUSH2 0xA10 JUMP JUMPDEST DUP2 ADD DUP2 DUP2 LT PUSH8 0xFFFFFFFFFFFFFFFF DUP3 GT OR ISZERO PUSH2 0xBBB JUMPI PUSH2 0xBBA PUSH2 0xB66 JUMP JUMPDEST JUMPDEST DUP1 PUSH1 0x40 MSTORE POP POP POP JUMP JUMPDEST PUSH0 PUSH2 0xBCD PUSH2 0x89C JUMP JUMPDEST SWAP1 POP PUSH2 0xBD9 DUP3 DUP3 PUSH2 0xB93 JUMP JUMPDEST SWAP2 SWAP1 POP JUMP JUMPDEST PUSH0 DUP1 REVERT JUMPDEST PUSH0 DUP1 REVERT JUMPDEST PUSH0 DUP1 REVERT JUMPDEST PUSH0 PUSH8 0xFFFFFFFFFFFFFFFF DUP3 GT ISZERO PUSH2 0xC04 JUMPI PUSH2 0xC03 PUSH2 0xB66 JUMP JUMPDEST JUMPDEST PUSH2 0xC0D DUP3 PUSH2 0xA10 JUMP JUMPDEST SWAP1 POP PUSH1 0x20 DUP2 ADD SWAP1 POP SWAP2 SWAP1 POP JUMP JUMPDEST DUP3 DUP2 DUP4 CALLDATACOPY PUSH0 DUP4 DUP4 ADD MSTORE POP POP POP JUMP JUMPDEST PUSH0 PUSH2 0xC3A PUSH2 0xC35 DUP5 PUSH2 0xBEA JUMP JUMPDEST PUSH2 0xBC4 JUMP JUMPDEST SWAP1 POP DUP3 DUP2 MSTORE PUSH1 0x20 DUP2 ADD DUP5 DUP5 DUP5 ADD GT ISZERO PUSH2 0xC56 JUMPI PUSH2 0xC55 PUSH2 0xBE6 JUMP JUMPDEST JUMPDEST PUSH2 0xC61 DUP5 DUP3 DUP6 PUSH2 0xC1A JUMP JUMPDEST POP SWAP4 SWAP3 POP POP POP JUMP JUMPDEST PUSH0 DUP3 PUSH1 0x1F DUP4 ADD SLT PUSH2 0xC7D JUMPI PUSH2 0xC7C PUSH2 0xBE2 JUMP JUMPDEST JUMPDEST DUP2 CALLDATALOAD PUSH2 0xC8D DUP5 DUP3 PUSH1 0x20 DUP7 ADD PUSH2 0xC28 JUMP JUMPDEST SWAP2 POP POP SWAP3 SWAP2 POP POP JUMP JUMPDEST PUSH0 PUSH2 0x140 DUP3 DUP5 SUB SLT ISZERO PUSH2 0xCAC JUMPI PUSH2 0xCAB PUSH2 0xB62 JUMP JUMPDEST JUMPDEST PUSH2 0xCB7 PUSH2 0x140 PUSH2 0xBC4 JUMP JUMPDEST SWAP1 POP PUSH0 PUSH2 0xCC6 DUP5 DUP3 DUP6 ADD PUSH2 0x8CC JUMP JUMPDEST PUSH0 DUP4 ADD MSTORE POP PUSH1 0x20 DUP3 ADD CALLDATALOAD PUSH8 0xFFFFFFFFFFFFFFFF DUP2 GT ISZERO PUSH2 0xCE9 JUMPI PUSH2 0xCE8 PUSH2 0xBDE JUMP JUMPDEST JUMPDEST PUSH2 0xCF5 DUP5 DUP3 DUP6 ADD PUSH2 0xC69 JUMP JUMPDEST PUSH1 0x20 DUP4 ADD MSTORE POP PUSH1 0x40 PUSH2 0xD09 DUP5 DUP3 DUP6 ADD PUSH2 0x951 JUMP JUMPDEST PUSH1 0x40 DUP4 ADD MSTORE POP PUSH1 0x60 PUSH2 0xD1D DUP5 DUP3 DUP6 ADD PUSH2 0x8CC JUMP JUMPDEST PUSH1 0x60 DUP4 ADD MSTORE POP PUSH1 0x80 PUSH2 0xD31 DUP5 DUP3 DUP6 ADD PUSH2 0x8CC JUMP JUMPDEST PUSH1 0x80 DUP4 ADD MSTORE POP PUSH1 0xA0 PUSH2 0xD45 DUP5 DUP3 DUP6 ADD PUSH2 0x8CC JUMP JUMPDEST PUSH1 0xA0 DUP4 ADD MSTORE POP PUSH1 0xC0 PUSH2 0xD59 DUP5 DUP3 DUP6 ADD PUSH2 0x8CC JUMP JUMPDEST PUSH1 0xC0 DUP4 ADD MSTORE POP PUSH1 0xE0 PUSH2 0xD6D DUP5 DUP3 DUP6 ADD PUSH2 0x8CC JUMP JUMPDEST PUSH1 0xE0 DUP4 ADD MSTORE POP PUSH2 0x100 PUSH2 0xD82 DUP5 DUP3 DUP6 ADD PUSH2 0x8CC JUMP JUMPDEST PUSH2 0x100 DUP4 ADD MSTORE POP PUSH2 0x120 PUSH2 0xD98 DUP5 DUP3 DUP6 ADD PUSH2 0x8CC JUMP JUMPDEST PUSH2 0x120 DUP4 ADD MSTORE POP SWAP3 SWAP2 POP POP JUMP JUMPDEST PUSH0 DUP1 PUSH1 0x40 DUP4 DUP6 SUB SLT ISZERO PUSH2 0xDBB JUMPI PUSH2 0xDBA PUSH2 0x8A5 JUMP JUMPDEST JUMPDEST PUSH0 PUSH2 0xDC8 DUP6 DUP3 DUP7 ADD PUSH2 0x951 JUMP JUMPDEST SWAP3 POP POP PUSH1 0x20 DUP4 ADD CALLDATALOAD PUSH8 0xFFFFFFFFFFFFFFFF DUP2 GT ISZERO PUSH2 0xDE9 JUMPI PUSH2 0xDE8 PUSH2 0x8A9 JUMP JUMPDEST JUMPDEST PUSH2 0xDF5 DUP6 DUP3 DUP7 ADD PUSH2 0xC96 JUMP JUMPDEST SWAP2 POP POP SWAP3 POP SWAP3 SWAP1 POP JUMP JUMPDEST PUSH0 PUSH1 0x20 DUP3 DUP5 SUB SLT ISZERO PUSH2 0xE14 JUMPI PUSH2 0xE13 PUSH2 0x8A5 JUMP JUMPDEST JUMPDEST PUSH0 DUP3 ADD CALLDATALOAD PUSH8 0xFFFFFFFFFFFFFFFF DUP2 GT ISZERO PUSH2 0xE31 JUMPI PUSH2 0xE30 PUSH2 0x8A9 JUMP JUMPDEST JUMPDEST PUSH2 0xE3D DUP5 DUP3 DUP6 ADD PUSH2 0xC69 JUMP JUMPDEST SWAP2 POP POP SWAP3 SWAP2 POP POP JUMP JUMPDEST PUSH32 0x526163652069732066756C6C0000000000000000000000000000000000000000 PUSH0 DUP3 ADD MSTORE POP JUMP JUMPDEST PUSH0 PUSH2 0xE7A PUSH1 0xC DUP4 PUSH2 0x9F2 JUMP JUMPDEST SWAP2 POP PUSH2 0xE85 DUP3 PUSH2 0xE46 JUMP JUMPDEST PUSH1 0x20 DUP3 ADD SWAP1 POP SWAP2 SWAP1 POP JUMP JUMPDEST PUSH0 PUSH1 0x20 DUP3 ADD SWAP1 POP DUP2 DUP2 SUB PUSH0 DUP4 ADD MSTORE PUSH2 0xEA7 DUP2 PUSH2 0xE6E JUMP JUMPDEST SWAP1 POP SWAP2 SWAP1 POP JUMP JUMPDEST PUSH32 0x486F72736520616C72656164792070726573656E740000000000000000000000 PUSH0 DUP3 ADD MSTORE POP JUMP JUMPDEST PUSH0 PUSH2 0xEE2 PUSH1 0x15 DUP4 PUSH2 0x9F2 JUMP JUMPDEST SWAP2 POP PUSH2 0xEED DUP3 PUSH2 0xEAE JUMP JUMPDEST PUSH1 0x20 DUP3 ADD SWAP1 POP SWAP2 SWAP1 POP JUMP JUMPDEST PUSH0 PUSH1 0x20 DUP3 ADD SWAP1 POP DUP2 DUP2 SUB PUSH0 DUP4 ADD MSTORE PUSH2 0xF0F DUP2 PUSH2 0xED6 JUMP JUMPDEST SWAP1 POP SWAP2 SWAP1 POP JUMP JUMPDEST PUSH32 0x486F727365206E6F7420696E2074686520726163650000000000000000000000 PUSH0 DUP3 ADD MSTORE POP JUMP JUMPDEST PUSH0 PUSH2 0xF4A PUSH1 0x15 DUP4 PUSH2 0x9F2 JUMP JUMPDEST SWAP2 POP PUSH2 0xF55 DUP3 PUSH2 0xF16 JUMP JUMPDEST PUSH1 0x20 DUP3 ADD SWAP1 POP SWAP2 SWAP1 POP JUMP JUMPDEST PUSH0 PUSH1 0x20 DUP3 ADD SWAP1 POP DUP2 DUP2 SUB PUSH0 DUP4 ADD MSTORE PUSH2 0xF77 DUP2 PUSH2 0xF3E JUMP JUMPDEST SWAP1 POP SWAP2 SWAP1 POP JUMP JUMPDEST PUSH32 0x4E487B7100000000000000000000000000000000000000000000000000000000 PUSH0 MSTORE PUSH1 0x22 PUSH1 0x4 MSTORE PUSH1 0x24 PUSH0 REVERT JUMPDEST PUSH0 PUSH1 0x2 DUP3 DIV SWAP1 POP PUSH1 0x1 DUP3 AND DUP1 PUSH2 0xFC2 JUMPI PUSH1 0x7F DUP3 AND SWAP2 POP JUMPDEST PUSH1 0x20 DUP3 LT DUP2 SUB PUSH2 0xFD5 JUMPI PUSH2 0xFD4 PUSH2 0xF7E JUMP JUMPDEST JUMPDEST POP SWAP2 SWAP1 POP JUMP JUMPDEST PUSH32 0x556E617070726F7665642063616C6C6572000000000000000000000000000000 PUSH0 DUP3 ADD MSTORE POP JUMP JUMPDEST PUSH0 PUSH2 0x100F PUSH1 0x11 DUP4 PUSH2 0x9F2 JUMP JUMPDEST SWAP2 POP PUSH2 0x101A DUP3 PUSH2 0xFDB JUMP JUMPDEST PUSH1 0x20 DUP3 ADD SWAP1 POP SWAP2 SWAP1 POP JUMP JUMPDEST PUSH0 PUSH1 0x20 DUP3 ADD SWAP1 POP DUP2 DUP2 SUB PUSH0 DUP4 ADD MSTORE PUSH2 0x103C DUP2 PUSH2 0x1003 JUMP JUMPDEST SWAP1 POP SWAP2 SWAP1 POP JUMP JUMPDEST PUSH32 0x4E487B7100000000000000000000000000000000000000000000000000000000 PUSH0 MSTORE PUSH1 0x11 PUSH1 0x4 MSTORE PUSH1 0x24 PUSH0 REVERT JUMPDEST PUSH0 PUSH2 0x107A DUP3 PUSH2 0x8AD JUMP JUMPDEST SWAP2 POP PUSH32 0x7FFFFFFFFFFFFFFFFFFFFFFFFFFFFFFFFFFFFFFFFFFFFFFFFFFFFFFFFFFFFFFF DUP3 SUB PUSH2 0x10AC JUMPI PUSH2 0x10AB PUSH2 0x1043 JUMP JUMPDEST JUMPDEST PUSH1 0x1 DUP3 ADD SWAP1 POP SWAP2 SWAP1 POP JUMP JUMPDEST PUSH0 DUP2 SWAP1 POP DUP2 PUSH0 MSTORE PUSH1 0x20 PUSH0 KECCAK256 SWAP1 POP SWAP2 SWAP1 POP JUMP JUMPDEST PUSH0 PUSH1 0x20 PUSH1 0x1F DUP4 ADD DIV SWAP1 POP SWAP2 SWAP1 POP JUMP JUMPDEST PUSH0 DUP3 DUP3 SHL SWAP1 POP SWAP3 SWAP2 POP POP JUMP JUMPDEST PUSH0 PUSH1 0x8 DUP4 MUL PUSH2 0x1113 PUSH32 0xFFFFFFFFFFFFFFFFFFFFFFFFFFFFFFFFFFFFFFFFFFFFFFFFFFFFFFFFFFFFFFFF DUP3 PUSH2 0x10D8 JUMP JUMPDEST PUSH2 0x111D DUP7 DUP4 PUSH2 0x10D8 JUMP JUMPDEST SWAP6 POP DUP1 NOT DUP5 AND SWAP4 POP DUP1 DUP7 AND DUP5 OR SWAP3 POP POP POP SWAP4 SWAP3 POP POP POP JUMP JUMPDEST PUSH0 DUP2 SWAP1 POP SWAP2 SWAP1 POP JUMP JUMPDEST PUSH0 PUSH2 0x1158 PUSH2 0x1153 PUSH2 0x114E DUP5 PUSH2 0x965 JUMP JUMPDEST PUSH2 0x1135 JUMP JUMPDEST PUSH2 0x965 JUMP JUMPDEST SWAP1 POP SWAP2 SWAP1 POP JUMP JUMPDEST PUSH0 DUP2 SWAP1 POP SWAP2 SWAP1 POP JUMP JUMPDEST PUSH2 0x1171 DUP4 PUSH2 0x113E JUMP JUMPDEST PUSH2 0x1185 PUSH2 0x117D DUP3 PUSH2 0x115F JUMP JUMPDEST DUP5 DUP5 SLOAD PUSH2 0x10E4 JUMP JUMPDEST DUP3 SSTORE POP POP POP POP JUMP JUMPDEST PUSH0 SWAP1 JUMP JUMPDEST PUSH2 0x1199 PUSH2 0x118D JUMP JUMPDEST PUSH2 0x11A4 DUP2 DUP5 DUP5 PUSH2 0x1168 JUMP JUMPDEST POP POP POP JUMP JUMPDEST JUMPDEST DUP2 DUP2 LT ISZERO PUSH2 0x11C7 JUMPI PUSH2 0x11BC PUSH0 DUP3 PUSH2 0x1191 JUMP JUMPDEST PUSH1 0x1 DUP2 ADD SWAP1 POP PUSH2 0x11AA JUMP JUMPDEST POP POP JUMP JUMPDEST PUSH1 0x1F DUP3 GT ISZERO PUSH2 0x120C JUMPI PUSH2 0x11DD DUP2 PUSH2 0x10B7 JUMP JUMPDEST PUSH2 0x11E6 DUP5 PUSH2 0x10C9 JUMP JUMPDEST DUP2 ADD PUSH1 0x20 DUP6 LT ISZERO PUSH2 0x11F5 JUMPI DUP2 SWAP1 POP JUMPDEST PUSH2 0x1209 PUSH2 0x1201 DUP6 PUSH2 0x10C9 JUMP JUMPDEST DUP4 ADD DUP3 PUSH2 0x11A9 JUMP JUMPDEST POP POP JUMPDEST POP POP POP JUMP JUMPDEST PUSH0 DUP3 DUP3 SHR SWAP1 POP SWAP3 SWAP2 POP POP JUMP JUMPDEST PUSH0 PUSH2 0x122C PUSH0 NOT DUP5 PUSH1 0x8 MUL PUSH2 0x1211 JUMP JUMPDEST NOT DUP1 DUP4 AND SWAP2 POP POP SWAP3 SWAP2 POP POP JUMP JUMPDEST PUSH0 PUSH2 0x1244 DUP4 DUP4 PUSH2 0x121D JUMP JUMPDEST SWAP2 POP DUP3 PUSH1 0x2 MUL DUP3 OR SWAP1 POP SWAP3 SWAP2 POP POP JUMP JUMPDEST PUSH2 0x125D DUP3 PUSH2 0x9E8 JUMP JUMPDEST PUSH8 0xFFFFFFFFFFFFFFFF DUP2 GT ISZERO PUSH2 0x1276 JUMPI PUSH2 0x1275 PUSH2 0xB66 JUMP JUMPDEST JUMPDEST PUSH2 0x1280 DUP3 SLOAD PUSH2 0xFAB JUMP JUMPDEST PUSH2 0x128B DUP3 DUP3 DUP6 PUSH2 0x11CB JUMP JUMPDEST PUSH0 PUSH1 0x20 SWAP1 POP PUSH1 0x1F DUP4 GT PUSH1 0x1 DUP2 EQ PUSH2 0x12BC JUMPI PUSH0 DUP5 ISZERO PUSH2 0x12AA JUMPI DUP3 DUP8 ADD MLOAD SWAP1 POP JUMPDEST PUSH2 0x12B4 DUP6 DUP3 PUSH2 0x1239 JUMP JUMPDEST DUP7 SSTORE POP PUSH2 0x131B JUMP JUMPDEST PUSH1 0x1F NOT DUP5 AND PUSH2 0x12CA DUP7 PUSH2 0x10B7 JUMP JUMPDEST PUSH0 JUMPDEST DUP3 DUP2 LT ISZERO PUSH2 0x12F1 JUMPI DUP5 DUP10 ADD MLOAD DUP3 SSTORE PUSH1 0x1 DUP3 ADD SWAP2 POP PUSH1 0x20 DUP6 ADD SWAP5 POP PUSH1 0x20 DUP2 ADD SWAP1 POP PUSH2 0x12CC JUMP JUMPDEST DUP7 DUP4 LT ISZERO PUSH2 0x130E JUMPI DUP5 DUP10 ADD MLOAD PUSH2 0x130A PUSH1 0x1F DUP10 AND DUP3 PUSH2 0x121D JUMP JUMPDEST DUP4 SSTORE POP JUMPDEST PUSH1 0x1 PUSH1 0x2 DUP9 MUL ADD DUP9 SSTORE POP POP POP JUMPDEST POP POP POP POP POP POP JUMP JUMPDEST PUSH32 0x4E487B7100000000000000000000000000000000000000000000000000000000 PUSH0 MSTORE PUSH1 0x32 PUSH1 0x4 MSTORE PUSH1 0x24 PUSH0 REVERT INVALID LOG2 PUSH5 0x6970667358 0x22 SLT KECCAK256 0xAD 0xFC PUSH22 0xF9747D978D22BC23F085DB33B11D75712BCA602A725 0xC4 0xF8 DUP3 0xDC 0xFC DUP13 PUSH28 0x64736F6C634300081900330000000000000000000000000000000000 "
				},
				"gasEstimates": {
					"creation": {
						"codeDepositCost": "999600",
						"executionCost": "6044",
						"totalCost": "1005644"
					},
					"external": {
						"addRaceHorse(int256)": "infinite",
						"bidOnHorse(address,int256,uint256)": "infinite",
						"breedOrExhaustHorse(address,(int256,string,address,int256,int256,int256,int256,int256,int256,int256))": "infinite",
						"horses(address)": "infinite",
						"initialiseHorse(address,(int256,string,address,int256,int256,int256,int256,int256,int256,int256))": "infinite",
						"initialiseRace(string)": "infinite",
						"race()": "infinite"
					},
					"internal": {
						"contains(int256[] memory,int256)": "infinite"
					}
				},
				"methodIdentifiers": {
					"addRaceHorse(int256)": "0c6317e8",
					"bidOnHorse(address,int256,uint256)": "68c9f988",
					"breedOrExhaustHorse(address,(int256,string,address,int256,int256,int256,int256,int256,int256,int256))": "e548cb55",
					"horses(address)": "93320afa",
					"initialiseHorse(address,(int256,string,address,int256,int256,int256,int256,int256,int256,int256))": "9b3935a3",
					"initialiseRace(string)": "dfb9ba3a",
					"race()": "691ba73a"
				}
			},
			"storageLayout": {
				"storage": [
					{
						"astId": 44,
						"contract": "contracts/horsey.sol:horsey",
						"label": "horses",
						"offset": 0,
						"slot": "0",
						"type": "t_mapping(t_address,t_struct(Horse)22_storage)"
					},
					{
						"astId": 47,
						"contract": "contracts/horsey.sol:horsey",
						"label": "race",
						"offset": 0,
						"slot": "1",
						"type": "t_struct(RaceData)39_storage"
					},
					{
						"astId": 50,
						"contract": "contracts/horsey.sol:horsey",
						"label": "horseIdCounter",
						"offset": 0,
						"slot": "4",
						"type": "t_int256"
					}
				],
				"types": {
					"t_address": {
						"encoding": "inplace",
						"label": "address",
						"numberOfBytes": "20"
					},
					"t_array(t_int256)dyn_storage": {
						"base": "t_int256",
						"encoding": "dynamic_array",
						"label": "int256[]",
						"numberOfBytes": "32"
					},
					"t_array(t_struct(Bid)29_storage)dyn_storage": {
						"base": "t_struct(Bid)29_storage",
						"encoding": "dynamic_array",
						"label": "struct horsey.Bid[]",
						"numberOfBytes": "32"
					},
					"t_int256": {
						"encoding": "inplace",
						"label": "int256",
						"numberOfBytes": "32"
					},
					"t_mapping(t_address,t_struct(Horse)22_storage)": {
						"encoding": "mapping",
						"key": "t_address",
						"label": "mapping(address => struct horsey.Horse)",
						"numberOfBytes": "32",
						"value": "t_struct(Horse)22_storage"
					},
					"t_string_storage": {
						"encoding": "bytes",
						"label": "string",
						"numberOfBytes": "32"
					},
					"t_struct(Bid)29_storage": {
						"encoding": "inplace",
						"label": "struct horsey.Bid",
						"members": [
							{
								"astId": 24,
								"contract": "contracts/horsey.sol:horsey",
								"label": "owner",
								"offset": 0,
								"slot": "0",
								"type": "t_address"
							},
							{
								"astId": 26,
								"contract": "contracts/horsey.sol:horsey",
								"label": "horseId",
								"offset": 0,
								"slot": "1",
								"type": "t_int256"
							},
							{
								"astId": 28,
								"contract": "contracts/horsey.sol:horsey",
								"label": "amount",
								"offset": 0,
								"slot": "2",
								"type": "t_uint256"
							}
						],
						"numberOfBytes": "96"
					},
					"t_struct(Horse)22_storage": {
						"encoding": "inplace",
						"label": "struct horsey.Horse",
						"members": [
							{
								"astId": 3,
								"contract": "contracts/horsey.sol:horsey",
								"label": "id",
								"offset": 0,
								"slot": "0",
								"type": "t_int256"
							},
							{
								"astId": 5,
								"contract": "contracts/horsey.sol:horsey",
								"label": "name",
								"offset": 0,
								"slot": "1",
								"type": "t_string_storage"
							},
							{
								"astId": 7,
								"contract": "contracts/horsey.sol:horsey",
								"label": "owner",
								"offset": 0,
								"slot": "2",
								"type": "t_address"
							},
							{
								"astId": 9,
								"contract": "contracts/horsey.sol:horsey",
								"label": "speed",
								"offset": 0,
								"slot": "3",
								"type": "t_int256"
							},
							{
								"astId": 11,
								"contract": "contracts/horsey.sol:horsey",
								"label": "acceleration",
								"offset": 0,
								"slot": "4",
								"type": "t_int256"
							},
							{
								"astId": 13,
								"contract": "contracts/horsey.sol:horsey",
								"label": "agility",
								"offset": 0,
								"slot": "5",
								"type": "t_int256"
							},
							{
								"astId": 15,
								"contract": "contracts/horsey.sol:horsey",
								"label": "stamina",
								"offset": 0,
								"slot": "6",
								"type": "t_int256"
							},
							{
								"astId": 17,
								"contract": "contracts/horsey.sol:horsey",
								"label": "strength",
								"offset": 0,
								"slot": "7",
								"type": "t_int256"
							},
							{
								"astId": 19,
								"contract": "contracts/horsey.sol:horsey",
								"label": "rarity",
								"offset": 0,
								"slot": "8",
								"type": "t_int256"
							},
							{
								"astId": 21,
								"contract": "contracts/horsey.sol:horsey",
								"label": "theta",
								"offset": 0,
								"slot": "9",
								"type": "t_int256"
							}
						],
						"numberOfBytes": "320"
					},
					"t_struct(RaceData)39_storage": {
						"encoding": "inplace",
						"label": "struct horsey.RaceData",
						"members": [
							{
								"astId": 31,
								"contract": "contracts/horsey.sol:horsey",
								"label": "timestamp",
								"offset": 0,
								"slot": "0",
								"type": "t_string_storage"
							},
							{
								"astId": 34,
								"contract": "contracts/horsey.sol:horsey",
								"label": "horses",
								"offset": 0,
								"slot": "1",
								"type": "t_array(t_int256)dyn_storage"
							},
							{
								"astId": 38,
								"contract": "contracts/horsey.sol:horsey",
								"label": "bids",
								"offset": 0,
								"slot": "2",
								"type": "t_array(t_struct(Bid)29_storage)dyn_storage"
							}
						],
						"numberOfBytes": "96"
					},
					"t_uint256": {
						"encoding": "inplace",
						"label": "uint256",
						"numberOfBytes": "32"
					}
				}
			},
			"userdoc": {
				"kind": "user",
				"methods": {},
				"version": 1
			}
		}
	}
}